{
	"week4/lan.sol": {
		"Ex4_11": {
			"abi": [
				{
					"inputs": [],
					"name": "comparison",
					"outputs": [
						{
							"internalType": "bool",
							"name": "",
							"type": "bool"
						},
						{
							"internalType": "bool",
							"name": "",
							"type": "bool"
						},
						{
							"internalType": "bool",
							"name": "",
							"type": "bool"
						},
						{
							"internalType": "bool",
							"name": "",
							"type": "bool"
						},
						{
							"internalType": "bool",
							"name": "",
							"type": "bool"
						},
						{
							"internalType": "bool",
							"name": "",
							"type": "bool"
						}
					],
					"stateMutability": "view",
					"type": "function"
				}
			],
			"devdoc": {
				"kind": "dev",
				"methods": {},
				"version": 1
			},
			"evm": {
				"assembly": "    /* \"week4/lan.sol\":2733:3012  contract Ex4_11 {... */\n  mstore(0x40, 0x80)\n    /* \"week4/lan.sol\":2769:2770  4 */\n  0x04\n    /* \"week4/lan.sol\":2765:2766  3 */\n  0x03\n    /* \"week4/lan.sol\":2765:2770  3 > 4 */\n  gt\n    /* \"week4/lan.sol\":2756:2770  bool a = 3 > 4 */\n  0x00\n  exp(0x0100, 0x00)\n  dup2\n  sload\n  dup2\n  0xff\n  mul\n  not\n  and\n  swap1\n  dup4\n  iszero\n  iszero\n  mul\n  or\n  swap1\n  sstore\n  pop\n    /* \"week4/lan.sol\":2790:2791  4 */\n  0x04\n    /* \"week4/lan.sol\":2786:2787  3 */\n  0x03\n    /* \"week4/lan.sol\":2786:2791  3 < 4 */\n  lt\n    /* \"week4/lan.sol\":2777:2791  bool b = 3 < 4 */\n  0x00\n  exp(0x0100, 0x01)\n  dup2\n  sload\n  dup2\n  0xff\n  mul\n  not\n  and\n  swap1\n  dup4\n  iszero\n  iszero\n  mul\n  or\n  swap1\n  sstore\n  pop\n    /* \"week4/lan.sol\":2812:2813  2 */\n  0x02\n    /* \"week4/lan.sol\":2807:2808  5 */\n  0x05\n    /* \"week4/lan.sol\":2807:2813  5 >= 2 */\n  lt\n  iszero\n    /* \"week4/lan.sol\":2798:2813  bool c = 5 >= 2 */\n  0x00\n  exp(0x0100, 0x02)\n  dup2\n  sload\n  dup2\n  0xff\n  mul\n  not\n  and\n  swap1\n  dup4\n  iszero\n  iszero\n  mul\n  or\n  swap1\n  sstore\n  pop\n    /* \"week4/lan.sol\":2834:2835  5 */\n  0x05\n    /* \"week4/lan.sol\":2829:2830  5 */\n  dup1\n    /* \"week4/lan.sol\":2829:2835  5 <= 5 */\n  gt\n  iszero\n    /* \"week4/lan.sol\":2820:2835  bool d = 5 <= 5 */\n  0x00\n  exp(0x0100, 0x03)\n  dup2\n  sload\n  dup2\n  0xff\n  mul\n  not\n  and\n  swap1\n  dup4\n  iszero\n  iszero\n  mul\n  or\n  swap1\n  sstore\n  pop\n    /* \"week4/lan.sol\":2856:2857  2 */\n  0x02\n    /* \"week4/lan.sol\":2851:2852  3 */\n  0x03\n    /* \"week4/lan.sol\":2851:2857  3 == 2 */\n  eq\n    /* \"week4/lan.sol\":2842:2857  bool e = 3 == 2 */\n  0x00\n  exp(0x0100, 0x04)\n  dup2\n  sload\n  dup2\n  0xff\n  mul\n  not\n  and\n  swap1\n  dup4\n  iszero\n  iszero\n  mul\n  or\n  swap1\n  sstore\n  pop\n    /* \"week4/lan.sol\":2878:2879  2 */\n  0x02\n    /* \"week4/lan.sol\":2873:2874  3 */\n  0x03\n    /* \"week4/lan.sol\":2873:2879  3 != 2 */\n  eq\n  iszero\n    /* \"week4/lan.sol\":2864:2879  bool f = 3 != 2 */\n  0x00\n  exp(0x0100, 0x05)\n  dup2\n  sload\n  dup2\n  0xff\n  mul\n  not\n  and\n  swap1\n  dup4\n  iszero\n  iszero\n  mul\n  or\n  swap1\n  sstore\n  pop\n    /* \"week4/lan.sol\":2733:3012  contract Ex4_11 {... */\n  callvalue\n  dup1\n  iszero\n  tag_1\n  jumpi\n  revert(0x00, 0x00)\ntag_1:\n  pop\n  dataSize(sub_0)\n  dup1\n  dataOffset(sub_0)\n  0x00\n  codecopy\n  0x00\n  return\nstop\n\nsub_0: assembly {\n        /* \"week4/lan.sol\":2733:3012  contract Ex4_11 {... */\n      mstore(0x40, 0x80)\n      callvalue\n      dup1\n      iszero\n      tag_1\n      jumpi\n      revert(0x00, 0x00)\n    tag_1:\n      pop\n      jumpi(tag_2, lt(calldatasize, 0x04))\n      shr(0xe0, calldataload(0x00))\n      dup1\n      0xaae103ad\n      eq\n      tag_3\n      jumpi\n    tag_2:\n      revert(0x00, 0x00)\n        /* \"week4/lan.sol\":2888:3009  function comparison() public view returns(bool, bool, bool, bool, bool, bool) {... */\n    tag_3:\n      tag_4\n      tag_5\n      jump\t// in\n    tag_4:\n      mload(0x40)\n      tag_6\n      swap7\n      swap6\n      swap5\n      swap4\n      swap3\n      swap2\n      swap1\n      tag_7\n      jump\t// in\n    tag_6:\n      mload(0x40)\n      dup1\n      swap2\n      sub\n      swap1\n      return\n    tag_5:\n        /* \"week4/lan.sol\":2930:2934  bool */\n      0x00\n        /* \"week4/lan.sol\":2936:2940  bool */\n      0x00\n        /* \"week4/lan.sol\":2942:2946  bool */\n      0x00\n        /* \"week4/lan.sol\":2948:2952  bool */\n      0x00\n        /* \"week4/lan.sol\":2954:2958  bool */\n      0x00\n        /* \"week4/lan.sol\":2960:2964  bool */\n      0x00\n        /* \"week4/lan.sol\":2984:2985  a */\n      0x00\n      0x00\n      swap1\n      sload\n      swap1\n      0x0100\n      exp\n      swap1\n      div\n      0xff\n      and\n        /* \"week4/lan.sol\":2987:2988  b */\n      0x00\n      0x01\n      swap1\n      sload\n      swap1\n      0x0100\n      exp\n      swap1\n      div\n      0xff\n      and\n        /* \"week4/lan.sol\":2990:2991  c */\n      0x00\n      0x02\n      swap1\n      sload\n      swap1\n      0x0100\n      exp\n      swap1\n      div\n      0xff\n      and\n        /* \"week4/lan.sol\":2993:2994  d */\n      0x00\n      0x03\n      swap1\n      sload\n      swap1\n      0x0100\n      exp\n      swap1\n      div\n      0xff\n      and\n        /* \"week4/lan.sol\":2996:2997  e */\n      0x00\n      0x04\n      swap1\n      sload\n      swap1\n      0x0100\n      exp\n      swap1\n      div\n      0xff\n      and\n        /* \"week4/lan.sol\":2999:3000  f */\n      0x00\n      0x05\n      swap1\n      sload\n      swap1\n      0x0100\n      exp\n      swap1\n      div\n      0xff\n      and\n        /* \"week4/lan.sol\":2977:3001  return(a, b, c, d, e, f) */\n      swap6\n      pop\n      swap6\n      pop\n      swap6\n      pop\n      swap6\n      pop\n      swap6\n      pop\n      swap6\n      pop\n        /* \"week4/lan.sol\":2888:3009  function comparison() public view returns(bool, bool, bool, bool, bool, bool) {... */\n      swap1\n      swap2\n      swap3\n      swap4\n      swap5\n      swap6\n      jump\t// out\n        /* \"#utility.yul\":7:97   */\n    tag_9:\n        /* \"#utility.yul\":41:48   */\n      0x00\n        /* \"#utility.yul\":84:89   */\n      dup2\n        /* \"#utility.yul\":77:90   */\n      iszero\n        /* \"#utility.yul\":70:91   */\n      iszero\n        /* \"#utility.yul\":59:91   */\n      swap1\n      pop\n        /* \"#utility.yul\":7:97   */\n      swap2\n      swap1\n      pop\n      jump\t// out\n        /* \"#utility.yul\":103:212   */\n    tag_10:\n        /* \"#utility.yul\":184:205   */\n      tag_14\n        /* \"#utility.yul\":199:204   */\n      dup2\n        /* \"#utility.yul\":184:205   */\n      tag_9\n      jump\t// in\n    tag_14:\n        /* \"#utility.yul\":179:182   */\n      dup3\n        /* \"#utility.yul\":172:206   */\n      mstore\n        /* \"#utility.yul\":103:212   */\n      pop\n      pop\n      jump\t// out\n        /* \"#utility.yul\":218:921   */\n    tag_7:\n        /* \"#utility.yul\":415:419   */\n      0x00\n        /* \"#utility.yul\":453:456   */\n      0xc0\n        /* \"#utility.yul\":442:451   */\n      dup3\n        /* \"#utility.yul\":438:457   */\n      add\n        /* \"#utility.yul\":430:457   */\n      swap1\n      pop\n        /* \"#utility.yul\":467:532   */\n      tag_16\n        /* \"#utility.yul\":529:530   */\n      0x00\n        /* \"#utility.yul\":518:527   */\n      dup4\n        /* \"#utility.yul\":514:531   */\n      add\n        /* \"#utility.yul\":505:511   */\n      dup10\n        /* \"#utility.yul\":467:532   */\n      tag_10\n      jump\t// in\n    tag_16:\n        /* \"#utility.yul\":542:608   */\n      tag_17\n        /* \"#utility.yul\":604:606   */\n      0x20\n        /* \"#utility.yul\":593:602   */\n      dup4\n        /* \"#utility.yul\":589:607   */\n      add\n        /* \"#utility.yul\":580:586   */\n      dup9\n        /* \"#utility.yul\":542:608   */\n      tag_10\n      jump\t// in\n    tag_17:\n        /* \"#utility.yul\":618:684   */\n      tag_18\n        /* \"#utility.yul\":680:682   */\n      0x40\n        /* \"#utility.yul\":669:678   */\n      dup4\n        /* \"#utility.yul\":665:683   */\n      add\n        /* \"#utility.yul\":656:662   */\n      dup8\n        /* \"#utility.yul\":618:684   */\n      tag_10\n      jump\t// in\n    tag_18:\n        /* \"#utility.yul\":694:760   */\n      tag_19\n        /* \"#utility.yul\":756:758   */\n      0x60\n        /* \"#utility.yul\":745:754   */\n      dup4\n        /* \"#utility.yul\":741:759   */\n      add\n        /* \"#utility.yul\":732:738   */\n      dup7\n        /* \"#utility.yul\":694:760   */\n      tag_10\n      jump\t// in\n    tag_19:\n        /* \"#utility.yul\":770:837   */\n      tag_20\n        /* \"#utility.yul\":832:835   */\n      0x80\n        /* \"#utility.yul\":821:830   */\n      dup4\n        /* \"#utility.yul\":817:836   */\n      add\n        /* \"#utility.yul\":808:814   */\n      dup6\n        /* \"#utility.yul\":770:837   */\n      tag_10\n      jump\t// in\n    tag_20:\n        /* \"#utility.yul\":847:914   */\n      tag_21\n        /* \"#utility.yul\":909:912   */\n      0xa0\n        /* \"#utility.yul\":898:907   */\n      dup4\n        /* \"#utility.yul\":894:913   */\n      add\n        /* \"#utility.yul\":885:891   */\n      dup5\n        /* \"#utility.yul\":847:914   */\n      tag_10\n      jump\t// in\n    tag_21:\n        /* \"#utility.yul\":218:921   */\n      swap8\n      swap7\n      pop\n      pop\n      pop\n      pop\n      pop\n      pop\n      pop\n      jump\t// out\n\n    auxdata: 0xa264697066735822122011df02ea47b9e0ffd2c4daabc79c7d5811fdb324fe2446ab50159cc5bfe1e37964736f6c634300081f0033\n}\n",
				"bytecode": {
					"linkReferences": {},
					"object": "608060405260046003115f5f6101000a81548160ff02191690831515021790555060046003105f60016101000a81548160ff0219169083151502179055506002600510155f60026101000a81548160ff02191690831515021790555060058011155f60036101000a81548160ff02191690831515021790555060026003145f60046101000a81548160ff0219169083151502179055506002600314155f60056101000a81548160ff02191690831515021790555034801560bd575f5ffd5b50610172806100cb5f395ff3fe608060405234801561000f575f5ffd5b5060043610610029575f3560e01c8063aae103ad1461002d575b5f5ffd5b610035610050565b604051610047969594939291906100dd565b60405180910390f35b5f5f5f5f5f5f5f5f9054906101000a900460ff165f60019054906101000a900460ff165f60029054906101000a900460ff165f60039054906101000a900460ff165f60049054906101000a900460ff165f60059054906101000a900460ff16955095509550955095509550909192939495565b5f8115159050919050565b6100d7816100c3565b82525050565b5f60c0820190506100f05f8301896100ce565b6100fd60208301886100ce565b61010a60408301876100ce565b61011760608301866100ce565b61012460808301856100ce565b61013160a08301846100ce565b97965050505050505056fea264697066735822122011df02ea47b9e0ffd2c4daabc79c7d5811fdb324fe2446ab50159cc5bfe1e37964736f6c634300081f0033",
					"opcodes": "PUSH1 0x80 PUSH1 0x40 MSTORE PUSH1 0x4 PUSH1 0x3 GT PUSH0 PUSH0 PUSH2 0x100 EXP DUP2 SLOAD DUP2 PUSH1 0xFF MUL NOT AND SWAP1 DUP4 ISZERO ISZERO MUL OR SWAP1 SSTORE POP PUSH1 0x4 PUSH1 0x3 LT PUSH0 PUSH1 0x1 PUSH2 0x100 EXP DUP2 SLOAD DUP2 PUSH1 0xFF MUL NOT AND SWAP1 DUP4 ISZERO ISZERO MUL OR SWAP1 SSTORE POP PUSH1 0x2 PUSH1 0x5 LT ISZERO PUSH0 PUSH1 0x2 PUSH2 0x100 EXP DUP2 SLOAD DUP2 PUSH1 0xFF MUL NOT AND SWAP1 DUP4 ISZERO ISZERO MUL OR SWAP1 SSTORE POP PUSH1 0x5 DUP1 GT ISZERO PUSH0 PUSH1 0x3 PUSH2 0x100 EXP DUP2 SLOAD DUP2 PUSH1 0xFF MUL NOT AND SWAP1 DUP4 ISZERO ISZERO MUL OR SWAP1 SSTORE POP PUSH1 0x2 PUSH1 0x3 EQ PUSH0 PUSH1 0x4 PUSH2 0x100 EXP DUP2 SLOAD DUP2 PUSH1 0xFF MUL NOT AND SWAP1 DUP4 ISZERO ISZERO MUL OR SWAP1 SSTORE POP PUSH1 0x2 PUSH1 0x3 EQ ISZERO PUSH0 PUSH1 0x5 PUSH2 0x100 EXP DUP2 SLOAD DUP2 PUSH1 0xFF MUL NOT AND SWAP1 DUP4 ISZERO ISZERO MUL OR SWAP1 SSTORE POP CALLVALUE DUP1 ISZERO PUSH1 0xBD JUMPI PUSH0 PUSH0 REVERT JUMPDEST POP PUSH2 0x172 DUP1 PUSH2 0xCB PUSH0 CODECOPY PUSH0 RETURN INVALID PUSH1 0x80 PUSH1 0x40 MSTORE CALLVALUE DUP1 ISZERO PUSH2 0xF JUMPI PUSH0 PUSH0 REVERT JUMPDEST POP PUSH1 0x4 CALLDATASIZE LT PUSH2 0x29 JUMPI PUSH0 CALLDATALOAD PUSH1 0xE0 SHR DUP1 PUSH4 0xAAE103AD EQ PUSH2 0x2D JUMPI JUMPDEST PUSH0 PUSH0 REVERT JUMPDEST PUSH2 0x35 PUSH2 0x50 JUMP JUMPDEST PUSH1 0x40 MLOAD PUSH2 0x47 SWAP7 SWAP6 SWAP5 SWAP4 SWAP3 SWAP2 SWAP1 PUSH2 0xDD JUMP JUMPDEST PUSH1 0x40 MLOAD DUP1 SWAP2 SUB SWAP1 RETURN JUMPDEST PUSH0 PUSH0 PUSH0 PUSH0 PUSH0 PUSH0 PUSH0 PUSH0 SWAP1 SLOAD SWAP1 PUSH2 0x100 EXP SWAP1 DIV PUSH1 0xFF AND PUSH0 PUSH1 0x1 SWAP1 SLOAD SWAP1 PUSH2 0x100 EXP SWAP1 DIV PUSH1 0xFF AND PUSH0 PUSH1 0x2 SWAP1 SLOAD SWAP1 PUSH2 0x100 EXP SWAP1 DIV PUSH1 0xFF AND PUSH0 PUSH1 0x3 SWAP1 SLOAD SWAP1 PUSH2 0x100 EXP SWAP1 DIV PUSH1 0xFF AND PUSH0 PUSH1 0x4 SWAP1 SLOAD SWAP1 PUSH2 0x100 EXP SWAP1 DIV PUSH1 0xFF AND PUSH0 PUSH1 0x5 SWAP1 SLOAD SWAP1 PUSH2 0x100 EXP SWAP1 DIV PUSH1 0xFF AND SWAP6 POP SWAP6 POP SWAP6 POP SWAP6 POP SWAP6 POP SWAP6 POP SWAP1 SWAP2 SWAP3 SWAP4 SWAP5 SWAP6 JUMP JUMPDEST PUSH0 DUP2 ISZERO ISZERO SWAP1 POP SWAP2 SWAP1 POP JUMP JUMPDEST PUSH2 0xD7 DUP2 PUSH2 0xC3 JUMP JUMPDEST DUP3 MSTORE POP POP JUMP JUMPDEST PUSH0 PUSH1 0xC0 DUP3 ADD SWAP1 POP PUSH2 0xF0 PUSH0 DUP4 ADD DUP10 PUSH2 0xCE JUMP JUMPDEST PUSH2 0xFD PUSH1 0x20 DUP4 ADD DUP9 PUSH2 0xCE JUMP JUMPDEST PUSH2 0x10A PUSH1 0x40 DUP4 ADD DUP8 PUSH2 0xCE JUMP JUMPDEST PUSH2 0x117 PUSH1 0x60 DUP4 ADD DUP7 PUSH2 0xCE JUMP JUMPDEST PUSH2 0x124 PUSH1 0x80 DUP4 ADD DUP6 PUSH2 0xCE JUMP JUMPDEST PUSH2 0x131 PUSH1 0xA0 DUP4 ADD DUP5 PUSH2 0xCE JUMP JUMPDEST SWAP8 SWAP7 POP POP POP POP POP POP POP JUMP INVALID LOG2 PUSH5 0x6970667358 0x22 SLT KECCAK256 GT 0xDF MUL 0xEA SELFBALANCE 0xB9 RJUMP 0xFFD2 0xC4 0xDA 0xAB 0xC7 SWAP13 PUSH30 0x5811FDB324FE2446AB50159CC5BFE1E37964736F6C634300081F00330000 "
				},
				"gasEstimates": {
					"creation": {
						"codeDepositCost": "74000",
						"executionCost": "146011",
						"totalCost": "220011"
					},
					"external": {
						"comparison()": "infinite"
					}
				},
				"methodIdentifiers": {
					"comparison()": "aae103ad"
				}
			},
			"storageLayout": {
				"storage": [
					{
						"astId": 317,
						"contract": "week4/lan.sol:Ex4_11",
						"label": "a",
						"offset": 0,
						"slot": "0",
						"type": "t_bool"
					},
					{
						"astId": 322,
						"contract": "week4/lan.sol:Ex4_11",
						"label": "b",
						"offset": 1,
						"slot": "0",
						"type": "t_bool"
					},
					{
						"astId": 327,
						"contract": "week4/lan.sol:Ex4_11",
						"label": "c",
						"offset": 2,
						"slot": "0",
						"type": "t_bool"
					},
					{
						"astId": 332,
						"contract": "week4/lan.sol:Ex4_11",
						"label": "d",
						"offset": 3,
						"slot": "0",
						"type": "t_bool"
					},
					{
						"astId": 337,
						"contract": "week4/lan.sol:Ex4_11",
						"label": "e",
						"offset": 4,
						"slot": "0",
						"type": "t_bool"
					},
					{
						"astId": 342,
						"contract": "week4/lan.sol:Ex4_11",
						"label": "f",
						"offset": 5,
						"slot": "0",
						"type": "t_bool"
					}
				],
				"types": {
					"t_bool": {
						"encoding": "inplace",
						"label": "bool",
						"numberOfBytes": "1"
					}
				}
			},
			"userdoc": {
				"kind": "user",
				"methods": {},
				"version": 1
			}
		}
	}
}