{
	"week4/lan.sol": {
		"Ex4_7": {
			"abi": [
				{
					"inputs": [],
					"name": "arithmetic",
					"outputs": [
						{
							"internalType": "uint256",
							"name": "",
							"type": "uint256"
						},
						{
							"internalType": "uint256",
							"name": "",
							"type": "uint256"
						},
						{
							"internalType": "uint256",
							"name": "",
							"type": "uint256"
						},
						{
							"internalType": "uint256",
							"name": "",
							"type": "uint256"
						},
						{
							"internalType": "uint256",
							"name": "",
							"type": "uint256"
						},
						{
							"internalType": "uint256",
							"name": "",
							"type": "uint256"
						}
					],
					"stateMutability": "view",
					"type": "function"
				}
			],
			"devdoc": {
				"kind": "dev",
				"methods": {},
				"version": 1
			},
			"evm": {
				"assembly": "    /* \"week4/lan.sol\":1342:1605  contract Ex4_7 {... */\n  mstore(0x40, 0x80)\n    /* \"week4/lan.sol\":1373:1376  5+2 */\n  0x07\n    /* \"week4/lan.sol\":1364:1376  uint a = 5+2 */\n  0x00\n  sstore\n    /* \"week4/lan.sol\":1392:1395  5-2 */\n  0x03\n    /* \"week4/lan.sol\":1383:1395  uint b = 5-2 */\n  0x01\n  sstore\n    /* \"week4/lan.sol\":1411:1414  5*2 */\n  0x0a\n    /* \"week4/lan.sol\":1402:1414  uint c = 5*2 */\n  0x02\n  sstore\n    /* \"week4/lan.sol\":1430:1433  5/5 */\n  0x01\n    /* \"week4/lan.sol\":1421:1433  uint d = 5/5 */\n  0x03\n  sstore\n    /* \"week4/lan.sol\":1449:1452  5%2 */\n  0x01\n    /* \"week4/lan.sol\":1440:1452  uint e = 5%2 */\n  0x04\n  sstore\n    /* \"week4/lan.sol\":1468:1472  5**2 */\n  0x19\n    /* \"week4/lan.sol\":1459:1472  uint f = 5**2 */\n  0x05\n  sstore\n    /* \"week4/lan.sol\":1342:1605  contract Ex4_7 {... */\n  callvalue\n  dup1\n  iszero\n  tag_1\n  jumpi\n  revert(0x00, 0x00)\ntag_1:\n  pop\n  dataSize(sub_0)\n  dup1\n  dataOffset(sub_0)\n  0x00\n  codecopy\n  0x00\n  return\nstop\n\nsub_0: assembly {\n        /* \"week4/lan.sol\":1342:1605  contract Ex4_7 {... */\n      mstore(0x40, 0x80)\n      callvalue\n      dup1\n      iszero\n      tag_1\n      jumpi\n      revert(0x00, 0x00)\n    tag_1:\n      pop\n      jumpi(tag_2, lt(calldatasize, 0x04))\n      shr(0xe0, calldataload(0x00))\n      dup1\n      0x980a67fd\n      eq\n      tag_3\n      jumpi\n    tag_2:\n      revert(0x00, 0x00)\n        /* \"week4/lan.sol\":1481:1602  function arithmetic() public view returns(uint, uint, uint, uint, uint, uint) {... */\n    tag_3:\n      tag_4\n      tag_5\n      jump\t// in\n    tag_4:\n      mload(0x40)\n      tag_6\n      swap7\n      swap6\n      swap5\n      swap4\n      swap3\n      swap2\n      swap1\n      tag_7\n      jump\t// in\n    tag_6:\n      mload(0x40)\n      dup1\n      swap2\n      sub\n      swap1\n      return\n    tag_5:\n        /* \"week4/lan.sol\":1523:1527  uint */\n      0x00\n        /* \"week4/lan.sol\":1529:1533  uint */\n      0x00\n        /* \"week4/lan.sol\":1535:1539  uint */\n      0x00\n        /* \"week4/lan.sol\":1541:1545  uint */\n      0x00\n        /* \"week4/lan.sol\":1547:1551  uint */\n      0x00\n        /* \"week4/lan.sol\":1553:1557  uint */\n      0x00\n        /* \"week4/lan.sol\":1577:1578  a */\n      sload(0x00)\n        /* \"week4/lan.sol\":1580:1581  b */\n      sload(0x01)\n        /* \"week4/lan.sol\":1583:1584  c */\n      sload(0x02)\n        /* \"week4/lan.sol\":1586:1587  d */\n      sload(0x03)\n        /* \"week4/lan.sol\":1589:1590  e */\n      sload(0x04)\n        /* \"week4/lan.sol\":1592:1593  f */\n      sload(0x05)\n        /* \"week4/lan.sol\":1570:1594  return(a, b, c, d, e, f) */\n      swap6\n      pop\n      swap6\n      pop\n      swap6\n      pop\n      swap6\n      pop\n      swap6\n      pop\n      swap6\n      pop\n        /* \"week4/lan.sol\":1481:1602  function arithmetic() public view returns(uint, uint, uint, uint, uint, uint) {... */\n      swap1\n      swap2\n      swap3\n      swap4\n      swap5\n      swap6\n      jump\t// out\n        /* \"#utility.yul\":7:84   */\n    tag_9:\n        /* \"#utility.yul\":44:51   */\n      0x00\n        /* \"#utility.yul\":73:78   */\n      dup2\n        /* \"#utility.yul\":62:78   */\n      swap1\n      pop\n        /* \"#utility.yul\":7:84   */\n      swap2\n      swap1\n      pop\n      jump\t// out\n        /* \"#utility.yul\":90:208   */\n    tag_10:\n        /* \"#utility.yul\":177:201   */\n      tag_14\n        /* \"#utility.yul\":195:200   */\n      dup2\n        /* \"#utility.yul\":177:201   */\n      tag_9\n      jump\t// in\n    tag_14:\n        /* \"#utility.yul\":172:175   */\n      dup3\n        /* \"#utility.yul\":165:202   */\n      mstore\n        /* \"#utility.yul\":90:208   */\n      pop\n      pop\n      jump\t// out\n        /* \"#utility.yul\":214:989   */\n    tag_7:\n        /* \"#utility.yul\":447:451   */\n      0x00\n        /* \"#utility.yul\":485:488   */\n      0xc0\n        /* \"#utility.yul\":474:483   */\n      dup3\n        /* \"#utility.yul\":470:489   */\n      add\n        /* \"#utility.yul\":462:489   */\n      swap1\n      pop\n        /* \"#utility.yul\":499:570   */\n      tag_16\n        /* \"#utility.yul\":567:568   */\n      0x00\n        /* \"#utility.yul\":556:565   */\n      dup4\n        /* \"#utility.yul\":552:569   */\n      add\n        /* \"#utility.yul\":543:549   */\n      dup10\n        /* \"#utility.yul\":499:570   */\n      tag_10\n      jump\t// in\n    tag_16:\n        /* \"#utility.yul\":580:652   */\n      tag_17\n        /* \"#utility.yul\":648:650   */\n      0x20\n        /* \"#utility.yul\":637:646   */\n      dup4\n        /* \"#utility.yul\":633:651   */\n      add\n        /* \"#utility.yul\":624:630   */\n      dup9\n        /* \"#utility.yul\":580:652   */\n      tag_10\n      jump\t// in\n    tag_17:\n        /* \"#utility.yul\":662:734   */\n      tag_18\n        /* \"#utility.yul\":730:732   */\n      0x40\n        /* \"#utility.yul\":719:728   */\n      dup4\n        /* \"#utility.yul\":715:733   */\n      add\n        /* \"#utility.yul\":706:712   */\n      dup8\n        /* \"#utility.yul\":662:734   */\n      tag_10\n      jump\t// in\n    tag_18:\n        /* \"#utility.yul\":744:816   */\n      tag_19\n        /* \"#utility.yul\":812:814   */\n      0x60\n        /* \"#utility.yul\":801:810   */\n      dup4\n        /* \"#utility.yul\":797:815   */\n      add\n        /* \"#utility.yul\":788:794   */\n      dup7\n        /* \"#utility.yul\":744:816   */\n      tag_10\n      jump\t// in\n    tag_19:\n        /* \"#utility.yul\":826:899   */\n      tag_20\n        /* \"#utility.yul\":894:897   */\n      0x80\n        /* \"#utility.yul\":883:892   */\n      dup4\n        /* \"#utility.yul\":879:898   */\n      add\n        /* \"#utility.yul\":870:876   */\n      dup6\n        /* \"#utility.yul\":826:899   */\n      tag_10\n      jump\t// in\n    tag_20:\n        /* \"#utility.yul\":909:982   */\n      tag_21\n        /* \"#utility.yul\":977:980   */\n      0xa0\n        /* \"#utility.yul\":966:975   */\n      dup4\n        /* \"#utility.yul\":962:981   */\n      add\n        /* \"#utility.yul\":953:959   */\n      dup5\n        /* \"#utility.yul\":909:982   */\n      tag_10\n      jump\t// in\n    tag_21:\n        /* \"#utility.yul\":214:989   */\n      swap8\n      swap7\n      pop\n      pop\n      pop\n      pop\n      pop\n      pop\n      pop\n      jump\t// out\n\n    auxdata: 0xa2646970667358221220d252ba3a669c23899b1bd778e79e60a8ae0d400850fcc1683824aac7b17948eb64736f6c634300081f0033\n}\n",
				"bytecode": {
					"linkReferences": {},
					"object": "608060405260075f556003600155600a600255600160035560016004556019600555348015602b575f5ffd5b50610113806100395f395ff3fe6080604052348015600e575f5ffd5b50600436106026575f3560e01c8063980a67fd14602a575b5f5ffd5b60306049565b604051604096959493929190608a565b60405180910390f35b5f5f5f5f5f5f5f54600154600254600354600454600554955095509550955095509550909192939495565b5f819050919050565b6084816074565b82525050565b5f60c082019050609b5f830189607d565b60a66020830188607d565b60b16040830187607d565b60bc6060830186607d565b60c76080830185607d565b60d260a0830184607d565b97965050505050505056fea2646970667358221220d252ba3a669c23899b1bd778e79e60a8ae0d400850fcc1683824aac7b17948eb64736f6c634300081f0033",
					"opcodes": "PUSH1 0x80 PUSH1 0x40 MSTORE PUSH1 0x7 PUSH0 SSTORE PUSH1 0x3 PUSH1 0x1 SSTORE PUSH1 0xA PUSH1 0x2 SSTORE PUSH1 0x1 PUSH1 0x3 SSTORE PUSH1 0x1 PUSH1 0x4 SSTORE PUSH1 0x19 PUSH1 0x5 SSTORE CALLVALUE DUP1 ISZERO PUSH1 0x2B JUMPI PUSH0 PUSH0 REVERT JUMPDEST POP PUSH2 0x113 DUP1 PUSH2 0x39 PUSH0 CODECOPY PUSH0 RETURN INVALID PUSH1 0x80 PUSH1 0x40 MSTORE CALLVALUE DUP1 ISZERO PUSH1 0xE JUMPI PUSH0 PUSH0 REVERT JUMPDEST POP PUSH1 0x4 CALLDATASIZE LT PUSH1 0x26 JUMPI PUSH0 CALLDATALOAD PUSH1 0xE0 SHR DUP1 PUSH4 0x980A67FD EQ PUSH1 0x2A JUMPI JUMPDEST PUSH0 PUSH0 REVERT JUMPDEST PUSH1 0x30 PUSH1 0x49 JUMP JUMPDEST PUSH1 0x40 MLOAD PUSH1 0x40 SWAP7 SWAP6 SWAP5 SWAP4 SWAP3 SWAP2 SWAP1 PUSH1 0x8A JUMP JUMPDEST PUSH1 0x40 MLOAD DUP1 SWAP2 SUB SWAP1 RETURN JUMPDEST PUSH0 PUSH0 PUSH0 PUSH0 PUSH0 PUSH0 PUSH0 SLOAD PUSH1 0x1 SLOAD PUSH1 0x2 SLOAD PUSH1 0x3 SLOAD PUSH1 0x4 SLOAD PUSH1 0x5 SLOAD SWAP6 POP SWAP6 POP SWAP6 POP SWAP6 POP SWAP6 POP SWAP6 POP SWAP1 SWAP2 SWAP3 SWAP4 SWAP5 SWAP6 JUMP JUMPDEST PUSH0 DUP2 SWAP1 POP SWAP2 SWAP1 POP JUMP JUMPDEST PUSH1 0x84 DUP2 PUSH1 0x74 JUMP JUMPDEST DUP3 MSTORE POP POP JUMP JUMPDEST PUSH0 PUSH1 0xC0 DUP3 ADD SWAP1 POP PUSH1 0x9B PUSH0 DUP4 ADD DUP10 PUSH1 0x7D JUMP JUMPDEST PUSH1 0xA6 PUSH1 0x20 DUP4 ADD DUP9 PUSH1 0x7D JUMP JUMPDEST PUSH1 0xB1 PUSH1 0x40 DUP4 ADD DUP8 PUSH1 0x7D JUMP JUMPDEST PUSH1 0xBC PUSH1 0x60 DUP4 ADD DUP7 PUSH1 0x7D JUMP JUMPDEST PUSH1 0xC7 PUSH1 0x80 DUP4 ADD DUP6 PUSH1 0x7D JUMP JUMPDEST PUSH1 0xD2 PUSH1 0xA0 DUP4 ADD DUP5 PUSH1 0x7D JUMP JUMPDEST SWAP8 SWAP7 POP POP POP POP POP POP POP JUMP INVALID LOG2 PUSH5 0x6970667358 0x22 SLT KECCAK256 0xD2 MSTORE 0xBA GASPRICE PUSH7 0x9C23899B1BD778 SWAPN 0x9E PUSH1 0xA8 0xAE 0xD BLOCKHASH ADDMOD POP 0xFC 0xC1 PUSH9 0x3824AAC7B17948EB64 PUSH20 0x6F6C634300081F00330000000000000000000000 "
				},
				"gasEstimates": {
					"creation": {
						"codeDepositCost": "55000",
						"executionCost": "132738",
						"totalCost": "187738"
					},
					"external": {
						"arithmetic()": "infinite"
					}
				},
				"methodIdentifiers": {
					"arithmetic()": "980a67fd"
				}
			},
			"storageLayout": {
				"storage": [
					{
						"astId": 145,
						"contract": "week4/lan.sol:Ex4_7",
						"label": "a",
						"offset": 0,
						"slot": "0",
						"type": "t_uint256"
					},
					{
						"astId": 150,
						"contract": "week4/lan.sol:Ex4_7",
						"label": "b",
						"offset": 0,
						"slot": "1",
						"type": "t_uint256"
					},
					{
						"astId": 155,
						"contract": "week4/lan.sol:Ex4_7",
						"label": "c",
						"offset": 0,
						"slot": "2",
						"type": "t_uint256"
					},
					{
						"astId": 160,
						"contract": "week4/lan.sol:Ex4_7",
						"label": "d",
						"offset": 0,
						"slot": "3",
						"type": "t_uint256"
					},
					{
						"astId": 165,
						"contract": "week4/lan.sol:Ex4_7",
						"label": "e",
						"offset": 0,
						"slot": "4",
						"type": "t_uint256"
					},
					{
						"astId": 170,
						"contract": "week4/lan.sol:Ex4_7",
						"label": "f",
						"offset": 0,
						"slot": "5",
						"type": "t_uint256"
					}
				],
				"types": {
					"t_uint256": {
						"encoding": "inplace",
						"label": "uint256",
						"numberOfBytes": "32"
					}
				}
			},
			"userdoc": {
				"kind": "user",
				"methods": {},
				"version": 1
			}
		}
	}
}