{
	"week4/lan.sol": {
		"Ex4_12": {
			"abi": [
				{
					"inputs": [],
					"name": "logical",
					"outputs": [
						{
							"internalType": "bool",
							"name": "",
							"type": "bool"
						},
						{
							"internalType": "bool",
							"name": "",
							"type": "bool"
						},
						{
							"internalType": "bool",
							"name": "",
							"type": "bool"
						},
						{
							"internalType": "bool",
							"name": "",
							"type": "bool"
						},
						{
							"internalType": "bool",
							"name": "",
							"type": "bool"
						},
						{
							"internalType": "bool",
							"name": "",
							"type": "bool"
						},
						{
							"internalType": "bool",
							"name": "",
							"type": "bool"
						}
					],
					"stateMutability": "view",
					"type": "function"
				}
			],
			"devdoc": {
				"kind": "dev",
				"methods": {},
				"version": 1
			},
			"evm": {
				"assembly": "    /* \"week4/lan.sol\":3048:3387  contract Ex4_12 {... */\n  mstore(0x40, 0x80)\n    /* \"week4/lan.sol\":3080:3084  true */\n  0x01\n    /* \"week4/lan.sol\":3080:3090  true&&true */\n  dup1\n  iszero\n  tag_1\n  jumpi\n  pop\n    /* \"week4/lan.sol\":3086:3090  true */\n  0x01\n    /* \"week4/lan.sol\":3080:3090  true&&true */\ntag_1:\n    /* \"week4/lan.sol\":3071:3090  bool a = true&&true */\n  0x00\n  exp(0x0100, 0x00)\n  dup2\n  sload\n  dup2\n  0xff\n  mul\n  not\n  and\n  swap1\n  dup4\n  iszero\n  iszero\n  mul\n  or\n  swap1\n  sstore\n  pop\n    /* \"week4/lan.sol\":3106:3110  true */\n  0x01\n    /* \"week4/lan.sol\":3106:3117  true&&false */\n  dup1\n  iszero\n  tag_2\n  jumpi\n  pop\n    /* \"week4/lan.sol\":3112:3117  false */\n  0x00\n    /* \"week4/lan.sol\":3106:3117  true&&false */\ntag_2:\n    /* \"week4/lan.sol\":3097:3117  bool b = true&&false */\n  0x00\n  exp(0x0100, 0x01)\n  dup2\n  sload\n  dup2\n  0xff\n  mul\n  not\n  and\n  swap1\n  dup4\n  iszero\n  iszero\n  mul\n  or\n  swap1\n  sstore\n  pop\n    /* \"week4/lan.sol\":3133:3138  false */\n  0x00\n    /* \"week4/lan.sol\":3133:3145  false&&false */\n  dup1\n  iszero\n  tag_3\n  jumpi\n  pop\n    /* \"week4/lan.sol\":3140:3145  false */\n  0x00\n    /* \"week4/lan.sol\":3133:3145  false&&false */\ntag_3:\n    /* \"week4/lan.sol\":3124:3145  bool c = false&&false */\n  0x00\n  exp(0x0100, 0x02)\n  dup2\n  sload\n  dup2\n  0xff\n  mul\n  not\n  and\n  swap1\n  dup4\n  iszero\n  iszero\n  mul\n  or\n  swap1\n  sstore\n  pop\n    /* \"week4/lan.sol\":3161:3165  true */\n  0x01\n    /* \"week4/lan.sol\":3161:3171  true||true */\n  dup1\n  tag_4\n  jumpi\n  pop\n    /* \"week4/lan.sol\":3167:3171  true */\n  0x01\n    /* \"week4/lan.sol\":3161:3171  true||true */\ntag_4:\n    /* \"week4/lan.sol\":3152:3171  bool d = true||true */\n  0x00\n  exp(0x0100, 0x03)\n  dup2\n  sload\n  dup2\n  0xff\n  mul\n  not\n  and\n  swap1\n  dup4\n  iszero\n  iszero\n  mul\n  or\n  swap1\n  sstore\n  pop\n    /* \"week4/lan.sol\":3187:3191  true */\n  0x01\n    /* \"week4/lan.sol\":3187:3198  true||false */\n  dup1\n  tag_5\n  jumpi\n  pop\n    /* \"week4/lan.sol\":3193:3198  false */\n  0x00\n    /* \"week4/lan.sol\":3187:3198  true||false */\ntag_5:\n    /* \"week4/lan.sol\":3178:3198  bool e = true||false */\n  0x00\n  exp(0x0100, 0x04)\n  dup2\n  sload\n  dup2\n  0xff\n  mul\n  not\n  and\n  swap1\n  dup4\n  iszero\n  iszero\n  mul\n  or\n  swap1\n  sstore\n  pop\n    /* \"week4/lan.sol\":3214:3219  false */\n  0x00\n    /* \"week4/lan.sol\":3214:3226  false||false */\n  dup1\n  tag_6\n  jumpi\n  pop\n    /* \"week4/lan.sol\":3221:3226  false */\n  0x00\n    /* \"week4/lan.sol\":3214:3226  false||false */\ntag_6:\n    /* \"week4/lan.sol\":3205:3226  bool f = false||false */\n  0x00\n  exp(0x0100, 0x05)\n  dup2\n  sload\n  dup2\n  0xff\n  mul\n  not\n  and\n  swap1\n  dup4\n  iszero\n  iszero\n  mul\n  or\n  swap1\n  sstore\n  pop\n    /* \"week4/lan.sol\":3243:3248  false */\n  0x00\n    /* \"week4/lan.sol\":3242:3248  !false */\n  iszero\n    /* \"week4/lan.sol\":3233:3248  bool g = !false */\n  0x00\n  exp(0x0100, 0x06)\n  dup2\n  sload\n  dup2\n  0xff\n  mul\n  not\n  and\n  swap1\n  dup4\n  iszero\n  iszero\n  mul\n  or\n  swap1\n  sstore\n  pop\n    /* \"week4/lan.sol\":3048:3387  contract Ex4_12 {... */\n  callvalue\n  dup1\n  iszero\n  tag_7\n  jumpi\n  revert(0x00, 0x00)\ntag_7:\n  pop\n  dataSize(sub_0)\n  dup1\n  dataOffset(sub_0)\n  0x00\n  codecopy\n  0x00\n  return\nstop\n\nsub_0: assembly {\n        /* \"week4/lan.sol\":3048:3387  contract Ex4_12 {... */\n      mstore(0x40, 0x80)\n      callvalue\n      dup1\n      iszero\n      tag_1\n      jumpi\n      revert(0x00, 0x00)\n    tag_1:\n      pop\n      jumpi(tag_2, lt(calldatasize, 0x04))\n      shr(0xe0, calldataload(0x00))\n      dup1\n      0x93daa367\n      eq\n      tag_3\n      jumpi\n    tag_2:\n      revert(0x00, 0x00)\n        /* \"week4/lan.sol\":3257:3384  function logical() public view returns(bool, bool, bool, bool, bool, bool, bool) {... */\n    tag_3:\n      tag_4\n      tag_5\n      jump\t// in\n    tag_4:\n      mload(0x40)\n      tag_6\n      swap8\n      swap7\n      swap6\n      swap5\n      swap4\n      swap3\n      swap2\n      swap1\n      tag_7\n      jump\t// in\n    tag_6:\n      mload(0x40)\n      dup1\n      swap2\n      sub\n      swap1\n      return\n    tag_5:\n        /* \"week4/lan.sol\":3296:3300  bool */\n      0x00\n        /* \"week4/lan.sol\":3302:3306  bool */\n      0x00\n        /* \"week4/lan.sol\":3308:3312  bool */\n      0x00\n        /* \"week4/lan.sol\":3314:3318  bool */\n      0x00\n        /* \"week4/lan.sol\":3320:3324  bool */\n      0x00\n        /* \"week4/lan.sol\":3326:3330  bool */\n      0x00\n        /* \"week4/lan.sol\":3332:3336  bool */\n      0x00\n        /* \"week4/lan.sol\":3356:3357  a */\n      0x00\n      0x00\n      swap1\n      sload\n      swap1\n      0x0100\n      exp\n      swap1\n      div\n      0xff\n      and\n        /* \"week4/lan.sol\":3359:3360  b */\n      0x00\n      0x01\n      swap1\n      sload\n      swap1\n      0x0100\n      exp\n      swap1\n      div\n      0xff\n      and\n        /* \"week4/lan.sol\":3362:3363  c */\n      0x00\n      0x02\n      swap1\n      sload\n      swap1\n      0x0100\n      exp\n      swap1\n      div\n      0xff\n      and\n        /* \"week4/lan.sol\":3365:3366  d */\n      0x00\n      0x03\n      swap1\n      sload\n      swap1\n      0x0100\n      exp\n      swap1\n      div\n      0xff\n      and\n        /* \"week4/lan.sol\":3368:3369  e */\n      0x00\n      0x04\n      swap1\n      sload\n      swap1\n      0x0100\n      exp\n      swap1\n      div\n      0xff\n      and\n        /* \"week4/lan.sol\":3371:3372  f */\n      0x00\n      0x05\n      swap1\n      sload\n      swap1\n      0x0100\n      exp\n      swap1\n      div\n      0xff\n      and\n        /* \"week4/lan.sol\":3374:3375  g */\n      0x00\n      0x06\n      swap1\n      sload\n      swap1\n      0x0100\n      exp\n      swap1\n      div\n      0xff\n      and\n        /* \"week4/lan.sol\":3349:3376  return(a, b, c, d, e, f, g) */\n      swap7\n      pop\n      swap7\n      pop\n      swap7\n      pop\n      swap7\n      pop\n      swap7\n      pop\n      swap7\n      pop\n      swap7\n      pop\n        /* \"week4/lan.sol\":3257:3384  function logical() public view returns(bool, bool, bool, bool, bool, bool, bool) {... */\n      swap1\n      swap2\n      swap3\n      swap4\n      swap5\n      swap6\n      swap7\n      jump\t// out\n        /* \"#utility.yul\":7:97   */\n    tag_9:\n        /* \"#utility.yul\":41:48   */\n      0x00\n        /* \"#utility.yul\":84:89   */\n      dup2\n        /* \"#utility.yul\":77:90   */\n      iszero\n        /* \"#utility.yul\":70:91   */\n      iszero\n        /* \"#utility.yul\":59:91   */\n      swap1\n      pop\n        /* \"#utility.yul\":7:97   */\n      swap2\n      swap1\n      pop\n      jump\t// out\n        /* \"#utility.yul\":103:212   */\n    tag_10:\n        /* \"#utility.yul\":184:205   */\n      tag_14\n        /* \"#utility.yul\":199:204   */\n      dup2\n        /* \"#utility.yul\":184:205   */\n      tag_9\n      jump\t// in\n    tag_14:\n        /* \"#utility.yul\":179:182   */\n      dup3\n        /* \"#utility.yul\":172:206   */\n      mstore\n        /* \"#utility.yul\":103:212   */\n      pop\n      pop\n      jump\t// out\n        /* \"#utility.yul\":218:1020   */\n    tag_7:\n        /* \"#utility.yul\":437:441   */\n      0x00\n        /* \"#utility.yul\":475:478   */\n      0xe0\n        /* \"#utility.yul\":464:473   */\n      dup3\n        /* \"#utility.yul\":460:479   */\n      add\n        /* \"#utility.yul\":452:479   */\n      swap1\n      pop\n        /* \"#utility.yul\":489:554   */\n      tag_16\n        /* \"#utility.yul\":551:552   */\n      0x00\n        /* \"#utility.yul\":540:549   */\n      dup4\n        /* \"#utility.yul\":536:553   */\n      add\n        /* \"#utility.yul\":527:533   */\n      dup11\n        /* \"#utility.yul\":489:554   */\n      tag_10\n      jump\t// in\n    tag_16:\n        /* \"#utility.yul\":564:630   */\n      tag_17\n        /* \"#utility.yul\":626:628   */\n      0x20\n        /* \"#utility.yul\":615:624   */\n      dup4\n        /* \"#utility.yul\":611:629   */\n      add\n        /* \"#utility.yul\":602:608   */\n      dup10\n        /* \"#utility.yul\":564:630   */\n      tag_10\n      jump\t// in\n    tag_17:\n        /* \"#utility.yul\":640:706   */\n      tag_18\n        /* \"#utility.yul\":702:704   */\n      0x40\n        /* \"#utility.yul\":691:700   */\n      dup4\n        /* \"#utility.yul\":687:705   */\n      add\n        /* \"#utility.yul\":678:684   */\n      dup9\n        /* \"#utility.yul\":640:706   */\n      tag_10\n      jump\t// in\n    tag_18:\n        /* \"#utility.yul\":716:782   */\n      tag_19\n        /* \"#utility.yul\":778:780   */\n      0x60\n        /* \"#utility.yul\":767:776   */\n      dup4\n        /* \"#utility.yul\":763:781   */\n      add\n        /* \"#utility.yul\":754:760   */\n      dup8\n        /* \"#utility.yul\":716:782   */\n      tag_10\n      jump\t// in\n    tag_19:\n        /* \"#utility.yul\":792:859   */\n      tag_20\n        /* \"#utility.yul\":854:857   */\n      0x80\n        /* \"#utility.yul\":843:852   */\n      dup4\n        /* \"#utility.yul\":839:858   */\n      add\n        /* \"#utility.yul\":830:836   */\n      dup7\n        /* \"#utility.yul\":792:859   */\n      tag_10\n      jump\t// in\n    tag_20:\n        /* \"#utility.yul\":869:936   */\n      tag_21\n        /* \"#utility.yul\":931:934   */\n      0xa0\n        /* \"#utility.yul\":920:929   */\n      dup4\n        /* \"#utility.yul\":916:935   */\n      add\n        /* \"#utility.yul\":907:913   */\n      dup6\n        /* \"#utility.yul\":869:936   */\n      tag_10\n      jump\t// in\n    tag_21:\n        /* \"#utility.yul\":946:1013   */\n      tag_22\n        /* \"#utility.yul\":1008:1011   */\n      0xc0\n        /* \"#utility.yul\":997:1006   */\n      dup4\n        /* \"#utility.yul\":993:1012   */\n      add\n        /* \"#utility.yul\":984:990   */\n      dup5\n        /* \"#utility.yul\":946:1013   */\n      tag_10\n      jump\t// in\n    tag_22:\n        /* \"#utility.yul\":218:1020   */\n      swap9\n      swap8\n      pop\n      pop\n      pop\n      pop\n      pop\n      pop\n      pop\n      pop\n      jump\t// out\n\n    auxdata: 0xa2646970667358221220804696819dfee9574163afa6e096f2d027f7d3e2b74e06d13bf650840f59541564736f6c634300081f0033\n}\n",
				"bytecode": {
					"linkReferences": {},
					"object": "608060405260018015610010575060015b5f5f6101000a81548160ff0219169083151502179055506001801561003257505f5b5f60016101000a81548160ff0219169083151502179055505f801561005457505f5b5f60026101000a81548160ff021916908315150217905550600180610077575060015b5f60036101000a81548160ff02191690831515021790555060018061009957505f5b5f60046101000a81548160ff0219169083151502179055505f806100ba57505f5b5f60056101000a81548160ff0219169083151502179055505f155f60066101000a81548160ff0219169083151502179055503480156100f7575f5ffd5b50610194806101055f395ff3fe608060405234801561000f575f5ffd5b5060043610610029575f3560e01c806393daa3671461002d575b5f5ffd5b610035610051565b60405161004897969594939291906100f1565b60405180910390f35b5f5f5f5f5f5f5f5f5f9054906101000a900460ff165f60019054906101000a900460ff165f60029054906101000a900460ff165f60039054906101000a900460ff165f60049054906101000a900460ff165f60059054906101000a900460ff165f60069054906101000a900460ff16965096509650965096509650965090919293949596565b5f8115159050919050565b6100eb816100d7565b82525050565b5f60e0820190506101045f83018a6100e2565b61011160208301896100e2565b61011e60408301886100e2565b61012b60608301876100e2565b61013860808301866100e2565b61014560a08301856100e2565b61015260c08301846100e2565b9897505050505050505056fea2646970667358221220804696819dfee9574163afa6e096f2d027f7d3e2b74e06d13bf650840f59541564736f6c634300081f0033",
					"opcodes": "PUSH1 0x80 PUSH1 0x40 MSTORE PUSH1 0x1 DUP1 ISZERO PUSH2 0x10 JUMPI POP PUSH1 0x1 JUMPDEST PUSH0 PUSH0 PUSH2 0x100 EXP DUP2 SLOAD DUP2 PUSH1 0xFF MUL NOT AND SWAP1 DUP4 ISZERO ISZERO MUL OR SWAP1 SSTORE POP PUSH1 0x1 DUP1 ISZERO PUSH2 0x32 JUMPI POP PUSH0 JUMPDEST PUSH0 PUSH1 0x1 PUSH2 0x100 EXP DUP2 SLOAD DUP2 PUSH1 0xFF MUL NOT AND SWAP1 DUP4 ISZERO ISZERO MUL OR SWAP1 SSTORE POP PUSH0 DUP1 ISZERO PUSH2 0x54 JUMPI POP PUSH0 JUMPDEST PUSH0 PUSH1 0x2 PUSH2 0x100 EXP DUP2 SLOAD DUP2 PUSH1 0xFF MUL NOT AND SWAP1 DUP4 ISZERO ISZERO MUL OR SWAP1 SSTORE POP PUSH1 0x1 DUP1 PUSH2 0x77 JUMPI POP PUSH1 0x1 JUMPDEST PUSH0 PUSH1 0x3 PUSH2 0x100 EXP DUP2 SLOAD DUP2 PUSH1 0xFF MUL NOT AND SWAP1 DUP4 ISZERO ISZERO MUL OR SWAP1 SSTORE POP PUSH1 0x1 DUP1 PUSH2 0x99 JUMPI POP PUSH0 JUMPDEST PUSH0 PUSH1 0x4 PUSH2 0x100 EXP DUP2 SLOAD DUP2 PUSH1 0xFF MUL NOT AND SWAP1 DUP4 ISZERO ISZERO MUL OR SWAP1 SSTORE POP PUSH0 DUP1 PUSH2 0xBA JUMPI POP PUSH0 JUMPDEST PUSH0 PUSH1 0x5 PUSH2 0x100 EXP DUP2 SLOAD DUP2 PUSH1 0xFF MUL NOT AND SWAP1 DUP4 ISZERO ISZERO MUL OR SWAP1 SSTORE POP PUSH0 ISZERO PUSH0 PUSH1 0x6 PUSH2 0x100 EXP DUP2 SLOAD DUP2 PUSH1 0xFF MUL NOT AND SWAP1 DUP4 ISZERO ISZERO MUL OR SWAP1 SSTORE POP CALLVALUE DUP1 ISZERO PUSH2 0xF7 JUMPI PUSH0 PUSH0 REVERT JUMPDEST POP PUSH2 0x194 DUP1 PUSH2 0x105 PUSH0 CODECOPY PUSH0 RETURN INVALID PUSH1 0x80 PUSH1 0x40 MSTORE CALLVALUE DUP1 ISZERO PUSH2 0xF JUMPI PUSH0 PUSH0 REVERT JUMPDEST POP PUSH1 0x4 CALLDATASIZE LT PUSH2 0x29 JUMPI PUSH0 CALLDATALOAD PUSH1 0xE0 SHR DUP1 PUSH4 0x93DAA367 EQ PUSH2 0x2D JUMPI JUMPDEST PUSH0 PUSH0 REVERT JUMPDEST PUSH2 0x35 PUSH2 0x51 JUMP JUMPDEST PUSH1 0x40 MLOAD PUSH2 0x48 SWAP8 SWAP7 SWAP6 SWAP5 SWAP4 SWAP3 SWAP2 SWAP1 PUSH2 0xF1 JUMP JUMPDEST PUSH1 0x40 MLOAD DUP1 SWAP2 SUB SWAP1 RETURN JUMPDEST PUSH0 PUSH0 PUSH0 PUSH0 PUSH0 PUSH0 PUSH0 PUSH0 PUSH0 SWAP1 SLOAD SWAP1 PUSH2 0x100 EXP SWAP1 DIV PUSH1 0xFF AND PUSH0 PUSH1 0x1 SWAP1 SLOAD SWAP1 PUSH2 0x100 EXP SWAP1 DIV PUSH1 0xFF AND PUSH0 PUSH1 0x2 SWAP1 SLOAD SWAP1 PUSH2 0x100 EXP SWAP1 DIV PUSH1 0xFF AND PUSH0 PUSH1 0x3 SWAP1 SLOAD SWAP1 PUSH2 0x100 EXP SWAP1 DIV PUSH1 0xFF AND PUSH0 PUSH1 0x4 SWAP1 SLOAD SWAP1 PUSH2 0x100 EXP SWAP1 DIV PUSH1 0xFF AND PUSH0 PUSH1 0x5 SWAP1 SLOAD SWAP1 PUSH2 0x100 EXP SWAP1 DIV PUSH1 0xFF AND PUSH0 PUSH1 0x6 SWAP1 SLOAD SWAP1 PUSH2 0x100 EXP SWAP1 DIV PUSH1 0xFF AND SWAP7 POP SWAP7 POP SWAP7 POP SWAP7 POP SWAP7 POP SWAP7 POP SWAP7 POP SWAP1 SWAP2 SWAP3 SWAP4 SWAP5 SWAP6 SWAP7 JUMP JUMPDEST PUSH0 DUP2 ISZERO ISZERO SWAP1 POP SWAP2 SWAP1 POP JUMP JUMPDEST PUSH2 0xEB DUP2 PUSH2 0xD7 JUMP JUMPDEST DUP3 MSTORE POP POP JUMP JUMPDEST PUSH0 PUSH1 0xE0 DUP3 ADD SWAP1 POP PUSH2 0x104 PUSH0 DUP4 ADD DUP11 PUSH2 0xE2 JUMP JUMPDEST PUSH2 0x111 PUSH1 0x20 DUP4 ADD DUP10 PUSH2 0xE2 JUMP JUMPDEST PUSH2 0x11E PUSH1 0x40 DUP4 ADD DUP9 PUSH2 0xE2 JUMP JUMPDEST PUSH2 0x12B PUSH1 0x60 DUP4 ADD DUP8 PUSH2 0xE2 JUMP JUMPDEST PUSH2 0x138 PUSH1 0x80 DUP4 ADD DUP7 PUSH2 0xE2 JUMP JUMPDEST PUSH2 0x145 PUSH1 0xA0 DUP4 ADD DUP6 PUSH2 0xE2 JUMP JUMPDEST PUSH2 0x152 PUSH1 0xC0 DUP4 ADD DUP5 PUSH2 0xE2 JUMP JUMPDEST SWAP9 SWAP8 POP POP POP POP POP POP POP POP JUMP INVALID LOG2 PUSH5 0x6970667358 0x22 SLT KECCAK256 DUP1 CHAINID SWAP7 DUP2 SWAP14 INVALID 0xE9 JUMPI COINBASE PUSH4 0xAFA6E096 CALLCODE 0xD0 0x27 0xF7 0xD3 0xE2 0xB7 0x4E MOD DATALOADN 0x3BF6 POP DUP5 0xF MSIZE SLOAD ISZERO PUSH5 0x736F6C6343 STOP ADDMOD 0x1F STOP CALLER "
				},
				"gasEstimates": {
					"creation": {
						"codeDepositCost": "80800",
						"executionCost": "170412",
						"totalCost": "251212"
					},
					"external": {
						"logical()": "infinite"
					}
				},
				"methodIdentifiers": {
					"logical()": "93daa367"
				}
			},
			"storageLayout": {
				"storage": [
					{
						"astId": 372,
						"contract": "week4/lan.sol:Ex4_12",
						"label": "a",
						"offset": 0,
						"slot": "0",
						"type": "t_bool"
					},
					{
						"astId": 377,
						"contract": "week4/lan.sol:Ex4_12",
						"label": "b",
						"offset": 1,
						"slot": "0",
						"type": "t_bool"
					},
					{
						"astId": 382,
						"contract": "week4/lan.sol:Ex4_12",
						"label": "c",
						"offset": 2,
						"slot": "0",
						"type": "t_bool"
					},
					{
						"astId": 387,
						"contract": "week4/lan.sol:Ex4_12",
						"label": "d",
						"offset": 3,
						"slot": "0",
						"type": "t_bool"
					},
					{
						"astId": 392,
						"contract": "week4/lan.sol:Ex4_12",
						"label": "e",
						"offset": 4,
						"slot": "0",
						"type": "t_bool"
					},
					{
						"astId": 397,
						"contract": "week4/lan.sol:Ex4_12",
						"label": "f",
						"offset": 5,
						"slot": "0",
						"type": "t_bool"
					},
					{
						"astId": 401,
						"contract": "week4/lan.sol:Ex4_12",
						"label": "g",
						"offset": 6,
						"slot": "0",
						"type": "t_bool"
					}
				],
				"types": {
					"t_bool": {
						"encoding": "inplace",
						"label": "bool",
						"numberOfBytes": "1"
					}
				}
			},
			"userdoc": {
				"kind": "user",
				"methods": {},
				"version": 1
			}
		}
	}
}