{
	"week4/lan.sol": {
		"Ex4_28": {
			"abi": [
				{
					"inputs": [],
					"name": "fun1",
					"outputs": [
						{
							"internalType": "uint256",
							"name": "",
							"type": "uint256"
						}
					],
					"stateMutability": "pure",
					"type": "function"
				}
			],
			"devdoc": {
				"kind": "dev",
				"methods": {},
				"version": 1
			},
			"evm": {
				"assembly": "    /* \"week4/lan.sol\":8171:8381  contract Ex4_28 {... */\n  mstore(0x40, 0x80)\n  callvalue\n  dup1\n  iszero\n  tag_1\n  jumpi\n  revert(0x00, 0x00)\ntag_1:\n  pop\n  dataSize(sub_0)\n  dup1\n  dataOffset(sub_0)\n  0x00\n  codecopy\n  0x00\n  return\nstop\n\nsub_0: assembly {\n        /* \"week4/lan.sol\":8171:8381  contract Ex4_28 {... */\n      mstore(0x40, 0x80)\n      callvalue\n      dup1\n      iszero\n      tag_1\n      jumpi\n      revert(0x00, 0x00)\n    tag_1:\n      pop\n      jumpi(tag_2, lt(calldatasize, 0x04))\n      shr(0xe0, calldataload(0x00))\n      dup1\n      0x446a45b7\n      eq\n      tag_3\n      jumpi\n    tag_2:\n      revert(0x00, 0x00)\n        /* \"week4/lan.sol\":8194:8378  function fun1() public pure returns(uint) {... */\n    tag_3:\n      tag_4\n      tag_5\n      jump\t// in\n    tag_4:\n      mload(0x40)\n      tag_6\n      swap2\n      swap1\n      tag_7\n      jump\t// in\n    tag_6:\n      mload(0x40)\n      dup1\n      swap2\n      sub\n      swap1\n      return\n    tag_5:\n        /* \"week4/lan.sol\":8230:8234  uint */\n      0x00\n        /* \"week4/lan.sol\":8247:8258  uint result */\n      0x00\n        /* \"week4/lan.sol\":8261:8262  0 */\n      0x00\n        /* \"week4/lan.sol\":8247:8262  uint result = 0 */\n      swap1\n      pop\n        /* \"week4/lan.sol\":8277:8283  uint a */\n      0x00\n        /* \"week4/lan.sol\":8286:8287  0 */\n      0x00\n        /* \"week4/lan.sol\":8277:8287  uint a = 0 */\n      swap1\n      pop\n        /* \"week4/lan.sol\":8273:8347  for(uint a = 0; a < 3; ++a) {... */\n    tag_9:\n        /* \"week4/lan.sol\":8293:8294  3 */\n      0x03\n        /* \"week4/lan.sol\":8289:8290  a */\n      dup2\n        /* \"week4/lan.sol\":8289:8294  a < 3 */\n      lt\n        /* \"week4/lan.sol\":8273:8347  for(uint a = 0; a < 3; ++a) {... */\n      iszero\n      tag_10\n      jumpi\n        /* \"week4/lan.sol\":8334:8335  a */\n      dup1\n        /* \"week4/lan.sol\":8325:8331  result */\n      dup3\n        /* \"week4/lan.sol\":8325:8335  result + a */\n      tag_12\n      swap2\n      swap1\n      tag_13\n      jump\t// in\n    tag_12:\n        /* \"week4/lan.sol\":8316:8335  result = result + a */\n      swap2\n      pop\n        /* \"week4/lan.sol\":8296:8299  ++a */\n      dup1\n      0x01\n      add\n      swap1\n      pop\n        /* \"week4/lan.sol\":8273:8347  for(uint a = 0; a < 3; ++a) {... */\n      jump(tag_9)\n    tag_10:\n      pop\n        /* \"week4/lan.sol\":8364:8370  result */\n      dup1\n        /* \"week4/lan.sol\":8357:8370  return result */\n      swap2\n      pop\n      pop\n        /* \"week4/lan.sol\":8194:8378  function fun1() public pure returns(uint) {... */\n      swap1\n      jump\t// out\n        /* \"#utility.yul\":7:84   */\n    tag_14:\n        /* \"#utility.yul\":44:51   */\n      0x00\n        /* \"#utility.yul\":73:78   */\n      dup2\n        /* \"#utility.yul\":62:78   */\n      swap1\n      pop\n        /* \"#utility.yul\":7:84   */\n      swap2\n      swap1\n      pop\n      jump\t// out\n        /* \"#utility.yul\":90:208   */\n    tag_15:\n        /* \"#utility.yul\":177:201   */\n      tag_20\n        /* \"#utility.yul\":195:200   */\n      dup2\n        /* \"#utility.yul\":177:201   */\n      tag_14\n      jump\t// in\n    tag_20:\n        /* \"#utility.yul\":172:175   */\n      dup3\n        /* \"#utility.yul\":165:202   */\n      mstore\n        /* \"#utility.yul\":90:208   */\n      pop\n      pop\n      jump\t// out\n        /* \"#utility.yul\":214:436   */\n    tag_7:\n        /* \"#utility.yul\":307:311   */\n      0x00\n        /* \"#utility.yul\":345:347   */\n      0x20\n        /* \"#utility.yul\":334:343   */\n      dup3\n        /* \"#utility.yul\":330:348   */\n      add\n        /* \"#utility.yul\":322:348   */\n      swap1\n      pop\n        /* \"#utility.yul\":358:429   */\n      tag_22\n        /* \"#utility.yul\":426:427   */\n      0x00\n        /* \"#utility.yul\":415:424   */\n      dup4\n        /* \"#utility.yul\":411:428   */\n      add\n        /* \"#utility.yul\":402:408   */\n      dup5\n        /* \"#utility.yul\":358:429   */\n      tag_15\n      jump\t// in\n    tag_22:\n        /* \"#utility.yul\":214:436   */\n      swap3\n      swap2\n      pop\n      pop\n      jump\t// out\n        /* \"#utility.yul\":442:622   */\n    tag_16:\n        /* \"#utility.yul\":490:567   */\n      0x4e487b7100000000000000000000000000000000000000000000000000000000\n        /* \"#utility.yul\":487:488   */\n      0x00\n        /* \"#utility.yul\":480:568   */\n      mstore\n        /* \"#utility.yul\":587:591   */\n      0x11\n        /* \"#utility.yul\":584:585   */\n      0x04\n        /* \"#utility.yul\":577:592   */\n      mstore\n        /* \"#utility.yul\":611:615   */\n      0x24\n        /* \"#utility.yul\":608:609   */\n      0x00\n        /* \"#utility.yul\":601:616   */\n      revert\n        /* \"#utility.yul\":628:819   */\n    tag_13:\n        /* \"#utility.yul\":668:671   */\n      0x00\n        /* \"#utility.yul\":687:707   */\n      tag_25\n        /* \"#utility.yul\":705:706   */\n      dup3\n        /* \"#utility.yul\":687:707   */\n      tag_14\n      jump\t// in\n    tag_25:\n        /* \"#utility.yul\":682:707   */\n      swap2\n      pop\n        /* \"#utility.yul\":721:741   */\n      tag_26\n        /* \"#utility.yul\":739:740   */\n      dup4\n        /* \"#utility.yul\":721:741   */\n      tag_14\n      jump\t// in\n    tag_26:\n        /* \"#utility.yul\":716:741   */\n      swap3\n      pop\n        /* \"#utility.yul\":764:765   */\n      dup3\n        /* \"#utility.yul\":761:762   */\n      dup3\n        /* \"#utility.yul\":757:766   */\n      add\n        /* \"#utility.yul\":750:766   */\n      swap1\n      pop\n        /* \"#utility.yul\":785:788   */\n      dup1\n        /* \"#utility.yul\":782:783   */\n      dup3\n        /* \"#utility.yul\":779:789   */\n      gt\n        /* \"#utility.yul\":776:812   */\n      iszero\n      tag_27\n      jumpi\n        /* \"#utility.yul\":792:810   */\n      tag_28\n      tag_16\n      jump\t// in\n    tag_28:\n        /* \"#utility.yul\":776:812   */\n    tag_27:\n        /* \"#utility.yul\":628:819   */\n      swap3\n      swap2\n      pop\n      pop\n      jump\t// out\n\n    auxdata: 0xa26469706673582212204d540bdce665de8dca65aeb9f1c2fa358455d6d8a71de64658b6a8d2c1569c7664736f6c634300081f0033\n}\n",
				"bytecode": {
					"linkReferences": {},
					"object": "6080604052348015600e575f5ffd5b506101308061001c5f395ff3fe6080604052348015600e575f5ffd5b50600436106026575f3560e01c8063446a45b714602a575b5f5ffd5b60306044565b604051603b9190608a565b60405180910390f35b5f5f5f90505f5f90505b6003811015606c5780826060919060ce565b9150806001019050604e565b508091505090565b5f819050919050565b6084816074565b82525050565b5f602082019050609b5f830184607d565b92915050565b7f4e487b71000000000000000000000000000000000000000000000000000000005f52601160045260245ffd5b5f60d6826074565b915060df836074565b925082820190508082111560f45760f360a1565b5b9291505056fea26469706673582212204d540bdce665de8dca65aeb9f1c2fa358455d6d8a71de64658b6a8d2c1569c7664736f6c634300081f0033",
					"opcodes": "PUSH1 0x80 PUSH1 0x40 MSTORE CALLVALUE DUP1 ISZERO PUSH1 0xE JUMPI PUSH0 PUSH0 REVERT JUMPDEST POP PUSH2 0x130 DUP1 PUSH2 0x1C PUSH0 CODECOPY PUSH0 RETURN INVALID PUSH1 0x80 PUSH1 0x40 MSTORE CALLVALUE DUP1 ISZERO PUSH1 0xE JUMPI PUSH0 PUSH0 REVERT JUMPDEST POP PUSH1 0x4 CALLDATASIZE LT PUSH1 0x26 JUMPI PUSH0 CALLDATALOAD PUSH1 0xE0 SHR DUP1 PUSH4 0x446A45B7 EQ PUSH1 0x2A JUMPI JUMPDEST PUSH0 PUSH0 REVERT JUMPDEST PUSH1 0x30 PUSH1 0x44 JUMP JUMPDEST PUSH1 0x40 MLOAD PUSH1 0x3B SWAP2 SWAP1 PUSH1 0x8A JUMP JUMPDEST PUSH1 0x40 MLOAD DUP1 SWAP2 SUB SWAP1 RETURN JUMPDEST PUSH0 PUSH0 PUSH0 SWAP1 POP PUSH0 PUSH0 SWAP1 POP JUMPDEST PUSH1 0x3 DUP2 LT ISZERO PUSH1 0x6C JUMPI DUP1 DUP3 PUSH1 0x60 SWAP2 SWAP1 PUSH1 0xCE JUMP JUMPDEST SWAP2 POP DUP1 PUSH1 0x1 ADD SWAP1 POP PUSH1 0x4E JUMP JUMPDEST POP DUP1 SWAP2 POP POP SWAP1 JUMP JUMPDEST PUSH0 DUP2 SWAP1 POP SWAP2 SWAP1 POP JUMP JUMPDEST PUSH1 0x84 DUP2 PUSH1 0x74 JUMP JUMPDEST DUP3 MSTORE POP POP JUMP JUMPDEST PUSH0 PUSH1 0x20 DUP3 ADD SWAP1 POP PUSH1 0x9B PUSH0 DUP4 ADD DUP5 PUSH1 0x7D JUMP JUMPDEST SWAP3 SWAP2 POP POP JUMP JUMPDEST PUSH32 0x4E487B7100000000000000000000000000000000000000000000000000000000 PUSH0 MSTORE PUSH1 0x11 PUSH1 0x4 MSTORE PUSH1 0x24 PUSH0 REVERT JUMPDEST PUSH0 PUSH1 0xD6 DUP3 PUSH1 0x74 JUMP JUMPDEST SWAP2 POP PUSH1 0xDF DUP4 PUSH1 0x74 JUMP JUMPDEST SWAP3 POP DUP3 DUP3 ADD SWAP1 POP DUP1 DUP3 GT ISZERO PUSH1 0xF4 JUMPI PUSH1 0xF3 PUSH1 0xA1 JUMP JUMPDEST JUMPDEST SWAP3 SWAP2 POP POP JUMP INVALID LOG2 PUSH5 0x6970667358 0x22 SLT KECCAK256 0x4D SLOAD SIGNEXTEND 0xDC DUPN 0x65 0xDE DUP14 0xCA PUSH6 0xAEB9F1C2FA35 DUP5 SSTORE 0xD6 0xD8 0xA7 SAR DUPN 0x46 PC 0xB6 0xA8 0xD2 0xC1 JUMP SWAP13 PUSH23 0x64736F6C634300081F0033000000000000000000000000 "
				},
				"gasEstimates": {
					"creation": {
						"codeDepositCost": "60800",
						"executionCost": "109",
						"totalCost": "60909"
					},
					"external": {
						"fun1()": "infinite"
					}
				},
				"methodIdentifiers": {
					"fun1()": "446a45b7"
				}
			},
			"storageLayout": {
				"storage": [],
				"types": null
			},
			"userdoc": {
				"kind": "user",
				"methods": {},
				"version": 1
			}
		}
	}
}