{
	"week4/lan.sol": {
		"Ex4_6": {
			"abi": [
				{
					"inputs": [],
					"name": "assignment",
					"outputs": [
						{
							"internalType": "int256",
							"name": "",
							"type": "int256"
						},
						{
							"internalType": "uint256",
							"name": "",
							"type": "uint256"
						},
						{
							"internalType": "bool",
							"name": "",
							"type": "bool"
						},
						{
							"internalType": "bytes",
							"name": "",
							"type": "bytes"
						},
						{
							"internalType": "string",
							"name": "",
							"type": "string"
						},
						{
							"internalType": "address",
							"name": "",
							"type": "address"
						}
					],
					"stateMutability": "view",
					"type": "function"
				}
			],
			"devdoc": {
				"kind": "dev",
				"methods": {},
				"version": 1
			},
			"evm": {
				"assembly": "    /* \"week4/lan.sol\":1069:1319  contract Ex4_6 {... */\n  mstore(0x40, 0x80)\n  callvalue\n  dup1\n  iszero\n  tag_1\n  jumpi\n  revert(0x00, 0x00)\ntag_1:\n  pop\n  dataSize(sub_0)\n  dup1\n  dataOffset(sub_0)\n  0x00\n  codecopy\n  0x00\n  return\nstop\n\nsub_0: assembly {\n        /* \"week4/lan.sol\":1069:1319  contract Ex4_6 {... */\n      mstore(0x40, 0x80)\n      callvalue\n      dup1\n      iszero\n      tag_1\n      jumpi\n      revert(0x00, 0x00)\n    tag_1:\n      pop\n      jumpi(tag_2, lt(calldatasize, 0x04))\n      shr(0xe0, calldataload(0x00))\n      dup1\n      0x71ca2ecf\n      eq\n      tag_3\n      jumpi\n    tag_2:\n      revert(0x00, 0x00)\n        /* \"week4/lan.sol\":1176:1316  function assignment() public view returns(int, uint, bool, bytes memory, string memory, address) {... */\n    tag_3:\n      tag_4\n      tag_5\n      jump\t// in\n    tag_4:\n      mload(0x40)\n      tag_6\n      swap7\n      swap6\n      swap5\n      swap4\n      swap3\n      swap2\n      swap1\n      tag_7\n      jump\t// in\n    tag_6:\n      mload(0x40)\n      dup1\n      swap2\n      sub\n      swap1\n      return\n    tag_5:\n        /* \"week4/lan.sol\":1218:1221  int */\n      0x00\n        /* \"week4/lan.sol\":1223:1227  uint */\n      0x00\n        /* \"week4/lan.sol\":1229:1233  bool */\n      0x00\n        /* \"week4/lan.sol\":1235:1247  bytes memory */\n      0x60\n        /* \"week4/lan.sol\":1249:1262  string memory */\n      dup1\n        /* \"week4/lan.sol\":1264:1271  address */\n      0x00\n        /* \"week4/lan.sol\":1291:1292  a */\n      sload(0x00)\n        /* \"week4/lan.sol\":1294:1295  b */\n      sload(0x01)\n        /* \"week4/lan.sol\":1297:1298  c */\n      0x02\n      0x00\n      swap1\n      sload\n      swap1\n      0x0100\n      exp\n      swap1\n      div\n      0xff\n      and\n        /* \"week4/lan.sol\":1300:1301  d */\n      0x03\n        /* \"week4/lan.sol\":1303:1304  e */\n      0x04\n        /* \"week4/lan.sol\":1306:1307  f */\n      0x05\n      0x00\n      swap1\n      sload\n      swap1\n      0x0100\n      exp\n      swap1\n      div\n      0xffffffffffffffffffffffffffffffffffffffff\n      and\n        /* \"week4/lan.sol\":1284:1308  return(a, b, c, d, e, f) */\n      dup3\n      dup1\n      sload\n      tag_9\n      swap1\n      tag_10\n      jump\t// in\n    tag_9:\n      dup1\n      0x1f\n      add\n      0x20\n      dup1\n      swap2\n      div\n      mul\n      0x20\n      add\n      mload(0x40)\n      swap1\n      dup2\n      add\n      0x40\n      mstore\n      dup1\n      swap3\n      swap2\n      swap1\n      dup2\n      dup2\n      mstore\n      0x20\n      add\n      dup3\n      dup1\n      sload\n      tag_11\n      swap1\n      tag_10\n      jump\t// in\n    tag_11:\n      dup1\n      iszero\n      tag_12\n      jumpi\n      dup1\n      0x1f\n      lt\n      tag_13\n      jumpi\n      0x0100\n      dup1\n      dup4\n      sload\n      div\n      mul\n      dup4\n      mstore\n      swap2\n      0x20\n      add\n      swap2\n      jump(tag_12)\n    tag_13:\n      dup3\n      add\n      swap2\n      swap1\n      0x00\n      mstore\n      keccak256(0x00, 0x20)\n      swap1\n    tag_14:\n      dup2\n      sload\n      dup2\n      mstore\n      swap1\n      0x01\n      add\n      swap1\n      0x20\n      add\n      dup1\n      dup4\n      gt\n      tag_14\n      jumpi\n      dup3\n      swap1\n      sub\n      0x1f\n      and\n      dup3\n      add\n      swap2\n    tag_12:\n      pop\n      pop\n      pop\n      pop\n      pop\n      swap3\n      pop\n      dup2\n      dup1\n      sload\n      tag_15\n      swap1\n      tag_10\n      jump\t// in\n    tag_15:\n      dup1\n      0x1f\n      add\n      0x20\n      dup1\n      swap2\n      div\n      mul\n      0x20\n      add\n      mload(0x40)\n      swap1\n      dup2\n      add\n      0x40\n      mstore\n      dup1\n      swap3\n      swap2\n      swap1\n      dup2\n      dup2\n      mstore\n      0x20\n      add\n      dup3\n      dup1\n      sload\n      tag_16\n      swap1\n      tag_10\n      jump\t// in\n    tag_16:\n      dup1\n      iszero\n      tag_17\n      jumpi\n      dup1\n      0x1f\n      lt\n      tag_18\n      jumpi\n      0x0100\n      dup1\n      dup4\n      sload\n      div\n      mul\n      dup4\n      mstore\n      swap2\n      0x20\n      add\n      swap2\n      jump(tag_17)\n    tag_18:\n      dup3\n      add\n      swap2\n      swap1\n      0x00\n      mstore\n      keccak256(0x00, 0x20)\n      swap1\n    tag_19:\n      dup2\n      sload\n      dup2\n      mstore\n      swap1\n      0x01\n      add\n      swap1\n      0x20\n      add\n      dup1\n      dup4\n      gt\n      tag_19\n      jumpi\n      dup3\n      swap1\n      sub\n      0x1f\n      and\n      dup3\n      add\n      swap2\n    tag_17:\n      pop\n      pop\n      pop\n      pop\n      pop\n      swap2\n      pop\n      swap6\n      pop\n      swap6\n      pop\n      swap6\n      pop\n      swap6\n      pop\n      swap6\n      pop\n      swap6\n      pop\n        /* \"week4/lan.sol\":1176:1316  function assignment() public view returns(int, uint, bool, bytes memory, string memory, address) {... */\n      swap1\n      swap2\n      swap3\n      swap4\n      swap5\n      swap6\n      jump\t// out\n        /* \"#utility.yul\":7:83   */\n    tag_20:\n        /* \"#utility.yul\":43:50   */\n      0x00\n        /* \"#utility.yul\":72:77   */\n      dup2\n        /* \"#utility.yul\":61:77   */\n      swap1\n      pop\n        /* \"#utility.yul\":7:83   */\n      swap2\n      swap1\n      pop\n      jump\t// out\n        /* \"#utility.yul\":89:204   */\n    tag_21:\n        /* \"#utility.yul\":174:197   */\n      tag_41\n        /* \"#utility.yul\":191:196   */\n      dup2\n        /* \"#utility.yul\":174:197   */\n      tag_20\n      jump\t// in\n    tag_41:\n        /* \"#utility.yul\":169:172   */\n      dup3\n        /* \"#utility.yul\":162:198   */\n      mstore\n        /* \"#utility.yul\":89:204   */\n      pop\n      pop\n      jump\t// out\n        /* \"#utility.yul\":210:287   */\n    tag_22:\n        /* \"#utility.yul\":247:254   */\n      0x00\n        /* \"#utility.yul\":276:281   */\n      dup2\n        /* \"#utility.yul\":265:281   */\n      swap1\n      pop\n        /* \"#utility.yul\":210:287   */\n      swap2\n      swap1\n      pop\n      jump\t// out\n        /* \"#utility.yul\":293:411   */\n    tag_23:\n        /* \"#utility.yul\":380:404   */\n      tag_44\n        /* \"#utility.yul\":398:403   */\n      dup2\n        /* \"#utility.yul\":380:404   */\n      tag_22\n      jump\t// in\n    tag_44:\n        /* \"#utility.yul\":375:378   */\n      dup3\n        /* \"#utility.yul\":368:405   */\n      mstore\n        /* \"#utility.yul\":293:411   */\n      pop\n      pop\n      jump\t// out\n        /* \"#utility.yul\":417:507   */\n    tag_24:\n        /* \"#utility.yul\":451:458   */\n      0x00\n        /* \"#utility.yul\":494:499   */\n      dup2\n        /* \"#utility.yul\":487:500   */\n      iszero\n        /* \"#utility.yul\":480:501   */\n      iszero\n        /* \"#utility.yul\":469:501   */\n      swap1\n      pop\n        /* \"#utility.yul\":417:507   */\n      swap2\n      swap1\n      pop\n      jump\t// out\n        /* \"#utility.yul\":513:622   */\n    tag_25:\n        /* \"#utility.yul\":594:615   */\n      tag_47\n        /* \"#utility.yul\":609:614   */\n      dup2\n        /* \"#utility.yul\":594:615   */\n      tag_24\n      jump\t// in\n    tag_47:\n        /* \"#utility.yul\":589:592   */\n      dup3\n        /* \"#utility.yul\":582:616   */\n      mstore\n        /* \"#utility.yul\":513:622   */\n      pop\n      pop\n      jump\t// out\n        /* \"#utility.yul\":628:726   */\n    tag_26:\n        /* \"#utility.yul\":679:685   */\n      0x00\n        /* \"#utility.yul\":713:718   */\n      dup2\n        /* \"#utility.yul\":707:719   */\n      mload\n        /* \"#utility.yul\":697:719   */\n      swap1\n      pop\n        /* \"#utility.yul\":628:726   */\n      swap2\n      swap1\n      pop\n      jump\t// out\n        /* \"#utility.yul\":732:900   */\n    tag_27:\n        /* \"#utility.yul\":815:826   */\n      0x00\n        /* \"#utility.yul\":849:855   */\n      dup3\n        /* \"#utility.yul\":844:847   */\n      dup3\n        /* \"#utility.yul\":837:856   */\n      mstore\n        /* \"#utility.yul\":889:893   */\n      0x20\n        /* \"#utility.yul\":884:887   */\n      dup3\n        /* \"#utility.yul\":880:894   */\n      add\n        /* \"#utility.yul\":865:894   */\n      swap1\n      pop\n        /* \"#utility.yul\":732:900   */\n      swap3\n      swap2\n      pop\n      pop\n      jump\t// out\n        /* \"#utility.yul\":906:1045   */\n    tag_28:\n        /* \"#utility.yul\":995:1001   */\n      dup3\n        /* \"#utility.yul\":990:993   */\n      dup2\n        /* \"#utility.yul\":985:988   */\n      dup4\n        /* \"#utility.yul\":979:1002   */\n      mcopy\n        /* \"#utility.yul\":1036:1037   */\n      0x00\n        /* \"#utility.yul\":1027:1033   */\n      dup4\n        /* \"#utility.yul\":1022:1025   */\n      dup4\n        /* \"#utility.yul\":1018:1034   */\n      add\n        /* \"#utility.yul\":1011:1038   */\n      mstore\n        /* \"#utility.yul\":906:1045   */\n      pop\n      pop\n      pop\n      jump\t// out\n        /* \"#utility.yul\":1051:1153   */\n    tag_29:\n        /* \"#utility.yul\":1092:1098   */\n      0x00\n        /* \"#utility.yul\":1143:1145   */\n      0x1f\n        /* \"#utility.yul\":1139:1146   */\n      not\n        /* \"#utility.yul\":1134:1136   */\n      0x1f\n        /* \"#utility.yul\":1127:1132   */\n      dup4\n        /* \"#utility.yul\":1123:1137   */\n      add\n        /* \"#utility.yul\":1119:1147   */\n      and\n        /* \"#utility.yul\":1109:1147   */\n      swap1\n      pop\n        /* \"#utility.yul\":1051:1153   */\n      swap2\n      swap1\n      pop\n      jump\t// out\n        /* \"#utility.yul\":1159:1532   */\n    tag_30:\n        /* \"#utility.yul\":1245:1248   */\n      0x00\n        /* \"#utility.yul\":1273:1311   */\n      tag_53\n        /* \"#utility.yul\":1305:1310   */\n      dup3\n        /* \"#utility.yul\":1273:1311   */\n      tag_26\n      jump\t// in\n    tag_53:\n        /* \"#utility.yul\":1327:1397   */\n      tag_54\n        /* \"#utility.yul\":1390:1396   */\n      dup2\n        /* \"#utility.yul\":1385:1388   */\n      dup6\n        /* \"#utility.yul\":1327:1397   */\n      tag_27\n      jump\t// in\n    tag_54:\n        /* \"#utility.yul\":1320:1397   */\n      swap4\n      pop\n        /* \"#utility.yul\":1406:1471   */\n      tag_55\n        /* \"#utility.yul\":1464:1470   */\n      dup2\n        /* \"#utility.yul\":1459:1462   */\n      dup6\n        /* \"#utility.yul\":1452:1456   */\n      0x20\n        /* \"#utility.yul\":1445:1450   */\n      dup7\n        /* \"#utility.yul\":1441:1457   */\n      add\n        /* \"#utility.yul\":1406:1471   */\n      tag_28\n      jump\t// in\n    tag_55:\n        /* \"#utility.yul\":1496:1525   */\n      tag_56\n        /* \"#utility.yul\":1518:1524   */\n      dup2\n        /* \"#utility.yul\":1496:1525   */\n      tag_29\n      jump\t// in\n    tag_56:\n        /* \"#utility.yul\":1491:1494   */\n      dup5\n        /* \"#utility.yul\":1487:1526   */\n      add\n        /* \"#utility.yul\":1480:1526   */\n      swap2\n      pop\n        /* \"#utility.yul\":1249:1532   */\n      pop\n        /* \"#utility.yul\":1159:1532   */\n      swap3\n      swap2\n      pop\n      pop\n      jump\t// out\n        /* \"#utility.yul\":1538:1637   */\n    tag_31:\n        /* \"#utility.yul\":1590:1596   */\n      0x00\n        /* \"#utility.yul\":1624:1629   */\n      dup2\n        /* \"#utility.yul\":1618:1630   */\n      mload\n        /* \"#utility.yul\":1608:1630   */\n      swap1\n      pop\n        /* \"#utility.yul\":1538:1637   */\n      swap2\n      swap1\n      pop\n      jump\t// out\n        /* \"#utility.yul\":1643:1812   */\n    tag_32:\n        /* \"#utility.yul\":1727:1738   */\n      0x00\n        /* \"#utility.yul\":1761:1767   */\n      dup3\n        /* \"#utility.yul\":1756:1759   */\n      dup3\n        /* \"#utility.yul\":1749:1768   */\n      mstore\n        /* \"#utility.yul\":1801:1805   */\n      0x20\n        /* \"#utility.yul\":1796:1799   */\n      dup3\n        /* \"#utility.yul\":1792:1806   */\n      add\n        /* \"#utility.yul\":1777:1806   */\n      swap1\n      pop\n        /* \"#utility.yul\":1643:1812   */\n      swap3\n      swap2\n      pop\n      pop\n      jump\t// out\n        /* \"#utility.yul\":1818:2195   */\n    tag_33:\n        /* \"#utility.yul\":1906:1909   */\n      0x00\n        /* \"#utility.yul\":1934:1973   */\n      tag_60\n        /* \"#utility.yul\":1967:1972   */\n      dup3\n        /* \"#utility.yul\":1934:1973   */\n      tag_31\n      jump\t// in\n    tag_60:\n        /* \"#utility.yul\":1989:2060   */\n      tag_61\n        /* \"#utility.yul\":2053:2059   */\n      dup2\n        /* \"#utility.yul\":2048:2051   */\n      dup6\n        /* \"#utility.yul\":1989:2060   */\n      tag_32\n      jump\t// in\n    tag_61:\n        /* \"#utility.yul\":1982:2060   */\n      swap4\n      pop\n        /* \"#utility.yul\":2069:2134   */\n      tag_62\n        /* \"#utility.yul\":2127:2133   */\n      dup2\n        /* \"#utility.yul\":2122:2125   */\n      dup6\n        /* \"#utility.yul\":2115:2119   */\n      0x20\n        /* \"#utility.yul\":2108:2113   */\n      dup7\n        /* \"#utility.yul\":2104:2120   */\n      add\n        /* \"#utility.yul\":2069:2134   */\n      tag_28\n      jump\t// in\n    tag_62:\n        /* \"#utility.yul\":2159:2188   */\n      tag_63\n        /* \"#utility.yul\":2181:2187   */\n      dup2\n        /* \"#utility.yul\":2159:2188   */\n      tag_29\n      jump\t// in\n    tag_63:\n        /* \"#utility.yul\":2154:2157   */\n      dup5\n        /* \"#utility.yul\":2150:2189   */\n      add\n        /* \"#utility.yul\":2143:2189   */\n      swap2\n      pop\n        /* \"#utility.yul\":1910:2195   */\n      pop\n        /* \"#utility.yul\":1818:2195   */\n      swap3\n      swap2\n      pop\n      pop\n      jump\t// out\n        /* \"#utility.yul\":2201:2327   */\n    tag_34:\n        /* \"#utility.yul\":2238:2245   */\n      0x00\n        /* \"#utility.yul\":2278:2320   */\n      0xffffffffffffffffffffffffffffffffffffffff\n        /* \"#utility.yul\":2271:2276   */\n      dup3\n        /* \"#utility.yul\":2267:2321   */\n      and\n        /* \"#utility.yul\":2256:2321   */\n      swap1\n      pop\n        /* \"#utility.yul\":2201:2327   */\n      swap2\n      swap1\n      pop\n      jump\t// out\n        /* \"#utility.yul\":2333:2429   */\n    tag_35:\n        /* \"#utility.yul\":2370:2377   */\n      0x00\n        /* \"#utility.yul\":2399:2423   */\n      tag_66\n        /* \"#utility.yul\":2417:2422   */\n      dup3\n        /* \"#utility.yul\":2399:2423   */\n      tag_34\n      jump\t// in\n    tag_66:\n        /* \"#utility.yul\":2388:2423   */\n      swap1\n      pop\n        /* \"#utility.yul\":2333:2429   */\n      swap2\n      swap1\n      pop\n      jump\t// out\n        /* \"#utility.yul\":2435:2553   */\n    tag_36:\n        /* \"#utility.yul\":2522:2546   */\n      tag_68\n        /* \"#utility.yul\":2540:2545   */\n      dup2\n        /* \"#utility.yul\":2522:2546   */\n      tag_35\n      jump\t// in\n    tag_68:\n        /* \"#utility.yul\":2517:2520   */\n      dup3\n        /* \"#utility.yul\":2510:2547   */\n      mstore\n        /* \"#utility.yul\":2435:2553   */\n      pop\n      pop\n      jump\t// out\n        /* \"#utility.yul\":2559:3496   */\n    tag_7:\n        /* \"#utility.yul\":2822:2826   */\n      0x00\n        /* \"#utility.yul\":2860:2863   */\n      0xc0\n        /* \"#utility.yul\":2849:2858   */\n      dup3\n        /* \"#utility.yul\":2845:2864   */\n      add\n        /* \"#utility.yul\":2837:2864   */\n      swap1\n      pop\n        /* \"#utility.yul\":2874:2943   */\n      tag_70\n        /* \"#utility.yul\":2940:2941   */\n      0x00\n        /* \"#utility.yul\":2929:2938   */\n      dup4\n        /* \"#utility.yul\":2925:2942   */\n      add\n        /* \"#utility.yul\":2916:2922   */\n      dup10\n        /* \"#utility.yul\":2874:2943   */\n      tag_21\n      jump\t// in\n    tag_70:\n        /* \"#utility.yul\":2953:3025   */\n      tag_71\n        /* \"#utility.yul\":3021:3023   */\n      0x20\n        /* \"#utility.yul\":3010:3019   */\n      dup4\n        /* \"#utility.yul\":3006:3024   */\n      add\n        /* \"#utility.yul\":2997:3003   */\n      dup9\n        /* \"#utility.yul\":2953:3025   */\n      tag_23\n      jump\t// in\n    tag_71:\n        /* \"#utility.yul\":3035:3101   */\n      tag_72\n        /* \"#utility.yul\":3097:3099   */\n      0x40\n        /* \"#utility.yul\":3086:3095   */\n      dup4\n        /* \"#utility.yul\":3082:3100   */\n      add\n        /* \"#utility.yul\":3073:3079   */\n      dup8\n        /* \"#utility.yul\":3035:3101   */\n      tag_25\n      jump\t// in\n    tag_72:\n        /* \"#utility.yul\":3148:3157   */\n      dup2\n        /* \"#utility.yul\":3142:3146   */\n      dup2\n        /* \"#utility.yul\":3138:3158   */\n      sub\n        /* \"#utility.yul\":3133:3135   */\n      0x60\n        /* \"#utility.yul\":3122:3131   */\n      dup4\n        /* \"#utility.yul\":3118:3136   */\n      add\n        /* \"#utility.yul\":3111:3159   */\n      mstore\n        /* \"#utility.yul\":3176:3252   */\n      tag_73\n        /* \"#utility.yul\":3247:3251   */\n      dup2\n        /* \"#utility.yul\":3238:3244   */\n      dup7\n        /* \"#utility.yul\":3176:3252   */\n      tag_30\n      jump\t// in\n    tag_73:\n        /* \"#utility.yul\":3168:3252   */\n      swap1\n      pop\n        /* \"#utility.yul\":3300:3309   */\n      dup2\n        /* \"#utility.yul\":3294:3298   */\n      dup2\n        /* \"#utility.yul\":3290:3310   */\n      sub\n        /* \"#utility.yul\":3284:3287   */\n      0x80\n        /* \"#utility.yul\":3273:3282   */\n      dup4\n        /* \"#utility.yul\":3269:3288   */\n      add\n        /* \"#utility.yul\":3262:3311   */\n      mstore\n        /* \"#utility.yul\":3328:3406   */\n      tag_74\n        /* \"#utility.yul\":3401:3405   */\n      dup2\n        /* \"#utility.yul\":3392:3398   */\n      dup6\n        /* \"#utility.yul\":3328:3406   */\n      tag_33\n      jump\t// in\n    tag_74:\n        /* \"#utility.yul\":3320:3406   */\n      swap1\n      pop\n        /* \"#utility.yul\":3416:3489   */\n      tag_75\n        /* \"#utility.yul\":3484:3487   */\n      0xa0\n        /* \"#utility.yul\":3473:3482   */\n      dup4\n        /* \"#utility.yul\":3469:3488   */\n      add\n        /* \"#utility.yul\":3460:3466   */\n      dup5\n        /* \"#utility.yul\":3416:3489   */\n      tag_36\n      jump\t// in\n    tag_75:\n        /* \"#utility.yul\":2559:3496   */\n      swap8\n      swap7\n      pop\n      pop\n      pop\n      pop\n      pop\n      pop\n      pop\n      jump\t// out\n        /* \"#utility.yul\":3502:3682   */\n    tag_37:\n        /* \"#utility.yul\":3550:3627   */\n      0x4e487b7100000000000000000000000000000000000000000000000000000000\n        /* \"#utility.yul\":3547:3548   */\n      0x00\n        /* \"#utility.yul\":3540:3628   */\n      mstore\n        /* \"#utility.yul\":3647:3651   */\n      0x22\n        /* \"#utility.yul\":3644:3645   */\n      0x04\n        /* \"#utility.yul\":3637:3652   */\n      mstore\n        /* \"#utility.yul\":3671:3675   */\n      0x24\n        /* \"#utility.yul\":3668:3669   */\n      0x00\n        /* \"#utility.yul\":3661:3676   */\n      revert\n        /* \"#utility.yul\":3688:4008   */\n    tag_10:\n        /* \"#utility.yul\":3732:3738   */\n      0x00\n        /* \"#utility.yul\":3769:3770   */\n      0x02\n        /* \"#utility.yul\":3763:3767   */\n      dup3\n        /* \"#utility.yul\":3759:3771   */\n      div\n        /* \"#utility.yul\":3749:3771   */\n      swap1\n      pop\n        /* \"#utility.yul\":3816:3817   */\n      0x01\n        /* \"#utility.yul\":3810:3814   */\n      dup3\n        /* \"#utility.yul\":3806:3818   */\n      and\n        /* \"#utility.yul\":3837:3855   */\n      dup1\n        /* \"#utility.yul\":3827:3908   */\n      tag_78\n      jumpi\n        /* \"#utility.yul\":3893:3897   */\n      0x7f\n        /* \"#utility.yul\":3885:3891   */\n      dup3\n        /* \"#utility.yul\":3881:3898   */\n      and\n        /* \"#utility.yul\":3871:3898   */\n      swap2\n      pop\n        /* \"#utility.yul\":3827:3908   */\n    tag_78:\n        /* \"#utility.yul\":3955:3957   */\n      0x20\n        /* \"#utility.yul\":3947:3953   */\n      dup3\n        /* \"#utility.yul\":3944:3958   */\n      lt\n        /* \"#utility.yul\":3924:3942   */\n      dup2\n        /* \"#utility.yul\":3921:3959   */\n      sub\n        /* \"#utility.yul\":3918:4002   */\n      tag_79\n      jumpi\n        /* \"#utility.yul\":3974:3992   */\n      tag_80\n      tag_37\n      jump\t// in\n    tag_80:\n        /* \"#utility.yul\":3918:4002   */\n    tag_79:\n        /* \"#utility.yul\":3739:4008   */\n      pop\n        /* \"#utility.yul\":3688:4008   */\n      swap2\n      swap1\n      pop\n      jump\t// out\n\n    auxdata: 0xa2646970667358221220792715053fb5004b66f8507a9b845feefb62966945780c81e3816e228e9f6f2f64736f6c634300081f0033\n}\n",
				"bytecode": {
					"linkReferences": {},
					"object": "6080604052348015600e575f5ffd5b506104048061001c5f395ff3fe608060405234801561000f575f5ffd5b5060043610610029575f3560e01c806371ca2ecf1461002d575b5f5ffd5b610035610050565b60405161004796959493929190610304565b60405180910390f35b5f5f5f6060805f5f5460015460025f9054906101000a900460ff166003600460055f9054906101000a900473ffffffffffffffffffffffffffffffffffffffff1682805461009d9061039e565b80601f01602080910402602001604051908101604052809291908181526020018280546100c99061039e565b80156101145780601f106100eb57610100808354040283529160200191610114565b820191905f5260205f20905b8154815290600101906020018083116100f757829003601f168201915b505050505092508180546101279061039e565b80601f01602080910402602001604051908101604052809291908181526020018280546101539061039e565b801561019e5780601f106101755761010080835404028352916020019161019e565b820191905f5260205f20905b81548152906001019060200180831161018157829003601f168201915b50505050509150955095509550955095509550909192939495565b5f819050919050565b6101cb816101b9565b82525050565b5f819050919050565b6101e3816101d1565b82525050565b5f8115159050919050565b6101fd816101e9565b82525050565b5f81519050919050565b5f82825260208201905092915050565b8281835e5f83830152505050565b5f601f19601f8301169050919050565b5f61024582610203565b61024f818561020d565b935061025f81856020860161021d565b6102688161022b565b840191505092915050565b5f81519050919050565b5f82825260208201905092915050565b5f61029782610273565b6102a1818561027d565b93506102b181856020860161021d565b6102ba8161022b565b840191505092915050565b5f73ffffffffffffffffffffffffffffffffffffffff82169050919050565b5f6102ee826102c5565b9050919050565b6102fe816102e4565b82525050565b5f60c0820190506103175f8301896101c2565b61032460208301886101da565b61033160408301876101f4565b8181036060830152610343818661023b565b90508181036080830152610357818561028d565b905061036660a08301846102f5565b979650505050505050565b7f4e487b71000000000000000000000000000000000000000000000000000000005f52602260045260245ffd5b5f60028204905060018216806103b557607f821691505b6020821081036103c8576103c7610371565b5b5091905056fea2646970667358221220792715053fb5004b66f8507a9b845feefb62966945780c81e3816e228e9f6f2f64736f6c634300081f0033",
					"opcodes": "PUSH1 0x80 PUSH1 0x40 MSTORE CALLVALUE DUP1 ISZERO PUSH1 0xE JUMPI PUSH0 PUSH0 REVERT JUMPDEST POP PUSH2 0x404 DUP1 PUSH2 0x1C PUSH0 CODECOPY PUSH0 RETURN INVALID PUSH1 0x80 PUSH1 0x40 MSTORE CALLVALUE DUP1 ISZERO PUSH2 0xF JUMPI PUSH0 PUSH0 REVERT JUMPDEST POP PUSH1 0x4 CALLDATASIZE LT PUSH2 0x29 JUMPI PUSH0 CALLDATALOAD PUSH1 0xE0 SHR DUP1 PUSH4 0x71CA2ECF EQ PUSH2 0x2D JUMPI JUMPDEST PUSH0 PUSH0 REVERT JUMPDEST PUSH2 0x35 PUSH2 0x50 JUMP JUMPDEST PUSH1 0x40 MLOAD PUSH2 0x47 SWAP7 SWAP6 SWAP5 SWAP4 SWAP3 SWAP2 SWAP1 PUSH2 0x304 JUMP JUMPDEST PUSH1 0x40 MLOAD DUP1 SWAP2 SUB SWAP1 RETURN JUMPDEST PUSH0 PUSH0 PUSH0 PUSH1 0x60 DUP1 PUSH0 PUSH0 SLOAD PUSH1 0x1 SLOAD PUSH1 0x2 PUSH0 SWAP1 SLOAD SWAP1 PUSH2 0x100 EXP SWAP1 DIV PUSH1 0xFF AND PUSH1 0x3 PUSH1 0x4 PUSH1 0x5 PUSH0 SWAP1 SLOAD SWAP1 PUSH2 0x100 EXP SWAP1 DIV PUSH20 0xFFFFFFFFFFFFFFFFFFFFFFFFFFFFFFFFFFFFFFFF AND DUP3 DUP1 SLOAD PUSH2 0x9D SWAP1 PUSH2 0x39E JUMP JUMPDEST DUP1 PUSH1 0x1F ADD PUSH1 0x20 DUP1 SWAP2 DIV MUL PUSH1 0x20 ADD PUSH1 0x40 MLOAD SWAP1 DUP2 ADD PUSH1 0x40 MSTORE DUP1 SWAP3 SWAP2 SWAP1 DUP2 DUP2 MSTORE PUSH1 0x20 ADD DUP3 DUP1 SLOAD PUSH2 0xC9 SWAP1 PUSH2 0x39E JUMP JUMPDEST DUP1 ISZERO PUSH2 0x114 JUMPI DUP1 PUSH1 0x1F LT PUSH2 0xEB JUMPI PUSH2 0x100 DUP1 DUP4 SLOAD DIV MUL DUP4 MSTORE SWAP2 PUSH1 0x20 ADD SWAP2 PUSH2 0x114 JUMP JUMPDEST DUP3 ADD SWAP2 SWAP1 PUSH0 MSTORE PUSH1 0x20 PUSH0 KECCAK256 SWAP1 JUMPDEST DUP2 SLOAD DUP2 MSTORE SWAP1 PUSH1 0x1 ADD SWAP1 PUSH1 0x20 ADD DUP1 DUP4 GT PUSH2 0xF7 JUMPI DUP3 SWAP1 SUB PUSH1 0x1F AND DUP3 ADD SWAP2 JUMPDEST POP POP POP POP POP SWAP3 POP DUP2 DUP1 SLOAD PUSH2 0x127 SWAP1 PUSH2 0x39E JUMP JUMPDEST DUP1 PUSH1 0x1F ADD PUSH1 0x20 DUP1 SWAP2 DIV MUL PUSH1 0x20 ADD PUSH1 0x40 MLOAD SWAP1 DUP2 ADD PUSH1 0x40 MSTORE DUP1 SWAP3 SWAP2 SWAP1 DUP2 DUP2 MSTORE PUSH1 0x20 ADD DUP3 DUP1 SLOAD PUSH2 0x153 SWAP1 PUSH2 0x39E JUMP JUMPDEST DUP1 ISZERO PUSH2 0x19E JUMPI DUP1 PUSH1 0x1F LT PUSH2 0x175 JUMPI PUSH2 0x100 DUP1 DUP4 SLOAD DIV MUL DUP4 MSTORE SWAP2 PUSH1 0x20 ADD SWAP2 PUSH2 0x19E JUMP JUMPDEST DUP3 ADD SWAP2 SWAP1 PUSH0 MSTORE PUSH1 0x20 PUSH0 KECCAK256 SWAP1 JUMPDEST DUP2 SLOAD DUP2 MSTORE SWAP1 PUSH1 0x1 ADD SWAP1 PUSH1 0x20 ADD DUP1 DUP4 GT PUSH2 0x181 JUMPI DUP3 SWAP1 SUB PUSH1 0x1F AND DUP3 ADD SWAP2 JUMPDEST POP POP POP POP POP SWAP2 POP SWAP6 POP SWAP6 POP SWAP6 POP SWAP6 POP SWAP6 POP SWAP6 POP SWAP1 SWAP2 SWAP3 SWAP4 SWAP5 SWAP6 JUMP JUMPDEST PUSH0 DUP2 SWAP1 POP SWAP2 SWAP1 POP JUMP JUMPDEST PUSH2 0x1CB DUP2 PUSH2 0x1B9 JUMP JUMPDEST DUP3 MSTORE POP POP JUMP JUMPDEST PUSH0 DUP2 SWAP1 POP SWAP2 SWAP1 POP JUMP JUMPDEST PUSH2 0x1E3 DUP2 PUSH2 0x1D1 JUMP JUMPDEST DUP3 MSTORE POP POP JUMP JUMPDEST PUSH0 DUP2 ISZERO ISZERO SWAP1 POP SWAP2 SWAP1 POP JUMP JUMPDEST PUSH2 0x1FD DUP2 PUSH2 0x1E9 JUMP JUMPDEST DUP3 MSTORE POP POP JUMP JUMPDEST PUSH0 DUP2 MLOAD SWAP1 POP SWAP2 SWAP1 POP JUMP JUMPDEST PUSH0 DUP3 DUP3 MSTORE PUSH1 0x20 DUP3 ADD SWAP1 POP SWAP3 SWAP2 POP POP JUMP JUMPDEST DUP3 DUP2 DUP4 MCOPY PUSH0 DUP4 DUP4 ADD MSTORE POP POP POP JUMP JUMPDEST PUSH0 PUSH1 0x1F NOT PUSH1 0x1F DUP4 ADD AND SWAP1 POP SWAP2 SWAP1 POP JUMP JUMPDEST PUSH0 PUSH2 0x245 DUP3 PUSH2 0x203 JUMP JUMPDEST PUSH2 0x24F DUP2 DUP6 PUSH2 0x20D JUMP JUMPDEST SWAP4 POP PUSH2 0x25F DUP2 DUP6 PUSH1 0x20 DUP7 ADD PUSH2 0x21D JUMP JUMPDEST PUSH2 0x268 DUP2 PUSH2 0x22B JUMP JUMPDEST DUP5 ADD SWAP2 POP POP SWAP3 SWAP2 POP POP JUMP JUMPDEST PUSH0 DUP2 MLOAD SWAP1 POP SWAP2 SWAP1 POP JUMP JUMPDEST PUSH0 DUP3 DUP3 MSTORE PUSH1 0x20 DUP3 ADD SWAP1 POP SWAP3 SWAP2 POP POP JUMP JUMPDEST PUSH0 PUSH2 0x297 DUP3 PUSH2 0x273 JUMP JUMPDEST PUSH2 0x2A1 DUP2 DUP6 PUSH2 0x27D JUMP JUMPDEST SWAP4 POP PUSH2 0x2B1 DUP2 DUP6 PUSH1 0x20 DUP7 ADD PUSH2 0x21D JUMP JUMPDEST PUSH2 0x2BA DUP2 PUSH2 0x22B JUMP JUMPDEST DUP5 ADD SWAP2 POP POP SWAP3 SWAP2 POP POP JUMP JUMPDEST PUSH0 PUSH20 0xFFFFFFFFFFFFFFFFFFFFFFFFFFFFFFFFFFFFFFFF DUP3 AND SWAP1 POP SWAP2 SWAP1 POP JUMP JUMPDEST PUSH0 PUSH2 0x2EE DUP3 PUSH2 0x2C5 JUMP JUMPDEST SWAP1 POP SWAP2 SWAP1 POP JUMP JUMPDEST PUSH2 0x2FE DUP2 PUSH2 0x2E4 JUMP JUMPDEST DUP3 MSTORE POP POP JUMP JUMPDEST PUSH0 PUSH1 0xC0 DUP3 ADD SWAP1 POP PUSH2 0x317 PUSH0 DUP4 ADD DUP10 PUSH2 0x1C2 JUMP JUMPDEST PUSH2 0x324 PUSH1 0x20 DUP4 ADD DUP9 PUSH2 0x1DA JUMP JUMPDEST PUSH2 0x331 PUSH1 0x40 DUP4 ADD DUP8 PUSH2 0x1F4 JUMP JUMPDEST DUP2 DUP2 SUB PUSH1 0x60 DUP4 ADD MSTORE PUSH2 0x343 DUP2 DUP7 PUSH2 0x23B JUMP JUMPDEST SWAP1 POP DUP2 DUP2 SUB PUSH1 0x80 DUP4 ADD MSTORE PUSH2 0x357 DUP2 DUP6 PUSH2 0x28D JUMP JUMPDEST SWAP1 POP PUSH2 0x366 PUSH1 0xA0 DUP4 ADD DUP5 PUSH2 0x2F5 JUMP JUMPDEST SWAP8 SWAP7 POP POP POP POP POP POP POP JUMP JUMPDEST PUSH32 0x4E487B7100000000000000000000000000000000000000000000000000000000 PUSH0 MSTORE PUSH1 0x22 PUSH1 0x4 MSTORE PUSH1 0x24 PUSH0 REVERT JUMPDEST PUSH0 PUSH1 0x2 DUP3 DIV SWAP1 POP PUSH1 0x1 DUP3 AND DUP1 PUSH2 0x3B5 JUMPI PUSH1 0x7F DUP3 AND SWAP2 POP JUMPDEST PUSH1 0x20 DUP3 LT DUP2 SUB PUSH2 0x3C8 JUMPI PUSH2 0x3C7 PUSH2 0x371 JUMP JUMPDEST JUMPDEST POP SWAP2 SWAP1 POP JUMP INVALID LOG2 PUSH5 0x6970667358 0x22 SLT KECCAK256 PUSH26 0x2715053FB5004B66F8507A9B845FEEFB62966945780C81E3816E 0x22 DUP15 SWAP16 PUSH16 0x2F64736F6C634300081F003300000000 "
				},
				"gasEstimates": {
					"creation": {
						"codeDepositCost": "205600",
						"executionCost": "249",
						"totalCost": "205849"
					},
					"external": {
						"assignment()": "infinite"
					}
				},
				"methodIdentifiers": {
					"assignment()": "71ca2ecf"
				}
			},
			"storageLayout": {
				"storage": [
					{
						"astId": 105,
						"contract": "week4/lan.sol:Ex4_6",
						"label": "a",
						"offset": 0,
						"slot": "0",
						"type": "t_int256"
					},
					{
						"astId": 107,
						"contract": "week4/lan.sol:Ex4_6",
						"label": "b",
						"offset": 0,
						"slot": "1",
						"type": "t_uint256"
					},
					{
						"astId": 109,
						"contract": "week4/lan.sol:Ex4_6",
						"label": "c",
						"offset": 0,
						"slot": "2",
						"type": "t_bool"
					},
					{
						"astId": 111,
						"contract": "week4/lan.sol:Ex4_6",
						"label": "d",
						"offset": 0,
						"slot": "3",
						"type": "t_bytes_storage"
					},
					{
						"astId": 113,
						"contract": "week4/lan.sol:Ex4_6",
						"label": "e",
						"offset": 0,
						"slot": "4",
						"type": "t_string_storage"
					},
					{
						"astId": 115,
						"contract": "week4/lan.sol:Ex4_6",
						"label": "f",
						"offset": 0,
						"slot": "5",
						"type": "t_address"
					}
				],
				"types": {
					"t_address": {
						"encoding": "inplace",
						"label": "address",
						"numberOfBytes": "20"
					},
					"t_bool": {
						"encoding": "inplace",
						"label": "bool",
						"numberOfBytes": "1"
					},
					"t_bytes_storage": {
						"encoding": "bytes",
						"label": "bytes",
						"numberOfBytes": "32"
					},
					"t_int256": {
						"encoding": "inplace",
						"label": "int256",
						"numberOfBytes": "32"
					},
					"t_string_storage": {
						"encoding": "bytes",
						"label": "string",
						"numberOfBytes": "32"
					},
					"t_uint256": {
						"encoding": "inplace",
						"label": "uint256",
						"numberOfBytes": "32"
					}
				}
			},
			"userdoc": {
				"kind": "user",
				"methods": {},
				"version": 1
			}
		}
	}
}