{
	"data": {
		"bytecode": {
			"linkReferences": {},
			"object": "608060405260035f553480156012575f5ffd5b5060ab80601e5f395ff3fe6080604052348015600e575f5ffd5b50600436106026575f3560e01c806375bbb4e714602a575b5f5ffd5b60306044565b604051603b9190605e565b60405180910390f35b5f90565b5f819050919050565b6058816048565b82525050565b5f602082019050606f5f8301846051565b9291505056fea264697066735822122001444d2cead0123d8fe243a2ace86ac82ca19ba694351d0ec7966ace105d723964736f6c634300081f0033",
			"opcodes": "PUSH1 0x80 PUSH1 0x40 MSTORE PUSH1 0x3 PUSH0 SSTORE CALLVALUE DUP1 ISZERO PUSH1 0x12 JUMPI PUSH0 PUSH0 REVERT JUMPDEST POP PUSH1 0xAB DUP1 PUSH1 0x1E PUSH0 CODECOPY PUSH0 RETURN INVALID PUSH1 0x80 PUSH1 0x40 MSTORE CALLVALUE DUP1 ISZERO PUSH1 0xE JUMPI PUSH0 PUSH0 REVERT JUMPDEST POP PUSH1 0x4 CALLDATASIZE LT PUSH1 0x26 JUMPI PUSH0 CALLDATALOAD PUSH1 0xE0 SHR DUP1 PUSH4 0x75BBB4E7 EQ PUSH1 0x2A JUMPI JUMPDEST PUSH0 PUSH0 REVERT JUMPDEST PUSH1 0x30 PUSH1 0x44 JUMP JUMPDEST PUSH1 0x40 MLOAD PUSH1 0x3B SWAP2 SWAP1 PUSH1 0x5E JUMP JUMPDEST PUSH1 0x40 MLOAD DUP1 SWAP2 SUB SWAP1 RETURN JUMPDEST PUSH0 SWAP1 JUMP JUMPDEST PUSH0 DUP2 SWAP1 POP SWAP2 SWAP1 POP JUMP JUMPDEST PUSH1 0x58 DUP2 PUSH1 0x48 JUMP JUMPDEST DUP3 MSTORE POP POP JUMP JUMPDEST PUSH0 PUSH1 0x20 DUP3 ADD SWAP1 POP PUSH1 0x6F PUSH0 DUP4 ADD DUP5 PUSH1 0x51 JUMP JUMPDEST SWAP3 SWAP2 POP POP JUMP INVALID LOG2 PUSH5 0x6970667358 0x22 SLT KECCAK256 ADD PREVRANDAO 0x4D 0x2C 0xEA 0xD0 SLT RETURNDATASIZE DUP16 0xE2 NUMBER LOG2 0xAC 0xE8 PUSH11 0xC82CA19BA694351D0EC796 PUSH11 0xCE105D723964736F6C6343 STOP ADDMOD 0x1F STOP CALLER "
		},
		"gasEstimates": {
			"creation": {
				"codeDepositCost": "34200",
				"executionCost": "22190",
				"totalCost": "56390"
			},
			"external": {
				"myFun()": "302"
			}
		},
		"methodIdentifiers": {
			"myFun()": "75bbb4e7"
		}
	},
	"abi": [
		{
			"inputs": [],
			"name": "myFun",
			"outputs": [
				{
					"internalType": "uint256",
					"name": "",
					"type": "uint256"
				}
			],
			"stateMutability": "pure",
			"type": "function"
		}
	]
}