{
	"data": {
		"bytecode": {
			"linkReferences": {},
			"object": "608060405260075f556003600155600a600255600160035560016004556019600555348015602b575f5ffd5b50610113806100395f395ff3fe6080604052348015600e575f5ffd5b50600436106026575f3560e01c8063980a67fd14602a575b5f5ffd5b60306049565b604051604096959493929190608a565b60405180910390f35b5f5f5f5f5f5f5f54600154600254600354600454600554955095509550955095509550909192939495565b5f819050919050565b6084816074565b82525050565b5f60c082019050609b5f830189607d565b60a66020830188607d565b60b16040830187607d565b60bc6060830186607d565b60c76080830185607d565b60d260a0830184607d565b97965050505050505056fea2646970667358221220eec2504d20365ab10c263539bfc13e45fc11bb1bd9a4228a1c025f7b8049c92b64736f6c634300081f0033",
			"opcodes": "PUSH1 0x80 PUSH1 0x40 MSTORE PUSH1 0x7 PUSH0 SSTORE PUSH1 0x3 PUSH1 0x1 SSTORE PUSH1 0xA PUSH1 0x2 SSTORE PUSH1 0x1 PUSH1 0x3 SSTORE PUSH1 0x1 PUSH1 0x4 SSTORE PUSH1 0x19 PUSH1 0x5 SSTORE CALLVALUE DUP1 ISZERO PUSH1 0x2B JUMPI PUSH0 PUSH0 REVERT JUMPDEST POP PUSH2 0x113 DUP1 PUSH2 0x39 PUSH0 CODECOPY PUSH0 RETURN INVALID PUSH1 0x80 PUSH1 0x40 MSTORE CALLVALUE DUP1 ISZERO PUSH1 0xE JUMPI PUSH0 PUSH0 REVERT JUMPDEST POP PUSH1 0x4 CALLDATASIZE LT PUSH1 0x26 JUMPI PUSH0 CALLDATALOAD PUSH1 0xE0 SHR DUP1 PUSH4 0x980A67FD EQ PUSH1 0x2A JUMPI JUMPDEST PUSH0 PUSH0 REVERT JUMPDEST PUSH1 0x30 PUSH1 0x49 JUMP JUMPDEST PUSH1 0x40 MLOAD PUSH1 0x40 SWAP7 SWAP6 SWAP5 SWAP4 SWAP3 SWAP2 SWAP1 PUSH1 0x8A JUMP JUMPDEST PUSH1 0x40 MLOAD DUP1 SWAP2 SUB SWAP1 RETURN JUMPDEST PUSH0 PUSH0 PUSH0 PUSH0 PUSH0 PUSH0 PUSH0 SLOAD PUSH1 0x1 SLOAD PUSH1 0x2 SLOAD PUSH1 0x3 SLOAD PUSH1 0x4 SLOAD PUSH1 0x5 SLOAD SWAP6 POP SWAP6 POP SWAP6 POP SWAP6 POP SWAP6 POP SWAP6 POP SWAP1 SWAP2 SWAP3 SWAP4 SWAP5 SWAP6 JUMP JUMPDEST PUSH0 DUP2 SWAP1 POP SWAP2 SWAP1 POP JUMP JUMPDEST PUSH1 0x84 DUP2 PUSH1 0x74 JUMP JUMPDEST DUP3 MSTORE POP POP JUMP JUMPDEST PUSH0 PUSH1 0xC0 DUP3 ADD SWAP1 POP PUSH1 0x9B PUSH0 DUP4 ADD DUP10 PUSH1 0x7D JUMP JUMPDEST PUSH1 0xA6 PUSH1 0x20 DUP4 ADD DUP9 PUSH1 0x7D JUMP JUMPDEST PUSH1 0xB1 PUSH1 0x40 DUP4 ADD DUP8 PUSH1 0x7D JUMP JUMPDEST PUSH1 0xBC PUSH1 0x60 DUP4 ADD DUP7 PUSH1 0x7D JUMP JUMPDEST PUSH1 0xC7 PUSH1 0x80 DUP4 ADD DUP6 PUSH1 0x7D JUMP JUMPDEST PUSH1 0xD2 PUSH1 0xA0 DUP4 ADD DUP5 PUSH1 0x7D JUMP JUMPDEST SWAP8 SWAP7 POP POP POP POP POP POP POP JUMP INVALID LOG2 PUSH5 0x6970667358 0x22 SLT KECCAK256 RETURNCONTRACT 0xC2 POP 0x4D KECCAK256 CALLDATASIZE GAS 0xB1 0xC 0x26 CALLDATALOAD CODECOPY 0xBF 0xC1 RETURNDATACOPY GASLIMIT 0xFC GT 0xBB SHL 0xD9 LOG4 0x22 DUP11 SHR MUL PUSH0 PUSH28 0x8049C92B64736F6C634300081F003300000000000000000000000000 "
		},
		"gasEstimates": {
			"creation": {
				"codeDepositCost": "55000",
				"executionCost": "132738",
				"totalCost": "187738"
			},
			"external": {
				"arithmetic()": "infinite"
			}
		},
		"methodIdentifiers": {
			"arithmetic()": "980a67fd"
		}
	},
	"abi": [
		{
			"inputs": [],
			"name": "arithmetic",
			"outputs": [
				{
					"internalType": "uint256",
					"name": "",
					"type": "uint256"
				},
				{
					"internalType": "uint256",
					"name": "",
					"type": "uint256"
				},
				{
					"internalType": "uint256",
					"name": "",
					"type": "uint256"
				},
				{
					"internalType": "uint256",
					"name": "",
					"type": "uint256"
				},
				{
					"internalType": "uint256",
					"name": "",
					"type": "uint256"
				},
				{
					"internalType": "uint256",
					"name": "",
					"type": "uint256"
				}
			],
			"stateMutability": "view",
			"type": "function"
		}
	]
}