{
	"data": {
		"bytecode": {
			"linkReferences": {},
			"object": "608060405260055f5560056001556005600255600560035560056004553480156026575f5ffd5b506102ee806100345f395ff3fe608060405234801561000f575f5ffd5b5060043610610029575f3560e01c806371ca2ecf1461002d575b5f5ffd5b61003561004f565b604051610046959493929190610106565b60405180910390f35b5f5f5f5f5f60025f5f8282546100659190610184565b92505081905550600260015f82825461007e91906101b7565b925050819055506002805f82825461009691906101ea565b92505081905550600560035f8282546100af9190610258565b92505081905550600260045f8282546100c89190610288565b925050819055505f54600154600254600354600454945094509450945094509091929394565b5f819050919050565b610100816100ee565b82525050565b5f60a0820190506101195f8301886100f7565b61012660208301876100f7565b61013360408301866100f7565b61014060608301856100f7565b61014d60808301846100f7565b9695505050505050565b7f4e487b71000000000000000000000000000000000000000000000000000000005f52601160045260245ffd5b5f61018e826100ee565b9150610199836100ee565b92508282019050808211156101b1576101b0610157565b5b92915050565b5f6101c1826100ee565b91506101cc836100ee565b92508282039050818111156101e4576101e3610157565b5b92915050565b5f6101f4826100ee565b91506101ff836100ee565b925082820261020d816100ee565b9150828204841483151761022457610223610157565b5b5092915050565b7f4e487b71000000000000000000000000000000000000000000000000000000005f52601260045260245ffd5b5f610262826100ee565b915061026d836100ee565b92508261027d5761027c61022b565b5b828204905092915050565b5f610292826100ee565b915061029d836100ee565b9250826102ad576102ac61022b565b5b82820690509291505056fea264697066735822122081a35e264851acea89990c79db542bf8bbb4bf555333b46fad4bdbdba15c81c964736f6c634300081f0033",
			"opcodes": "PUSH1 0x80 PUSH1 0x40 MSTORE PUSH1 0x5 PUSH0 SSTORE PUSH1 0x5 PUSH1 0x1 SSTORE PUSH1 0x5 PUSH1 0x2 SSTORE PUSH1 0x5 PUSH1 0x3 SSTORE PUSH1 0x5 PUSH1 0x4 SSTORE CALLVALUE DUP1 ISZERO PUSH1 0x26 JUMPI PUSH0 PUSH0 REVERT JUMPDEST POP PUSH2 0x2EE DUP1 PUSH2 0x34 PUSH0 CODECOPY PUSH0 RETURN INVALID PUSH1 0x80 PUSH1 0x40 MSTORE CALLVALUE DUP1 ISZERO PUSH2 0xF JUMPI PUSH0 PUSH0 REVERT JUMPDEST POP PUSH1 0x4 CALLDATASIZE LT PUSH2 0x29 JUMPI PUSH0 CALLDATALOAD PUSH1 0xE0 SHR DUP1 PUSH4 0x71CA2ECF EQ PUSH2 0x2D JUMPI JUMPDEST PUSH0 PUSH0 REVERT JUMPDEST PUSH2 0x35 PUSH2 0x4F JUMP JUMPDEST PUSH1 0x40 MLOAD PUSH2 0x46 SWAP6 SWAP5 SWAP4 SWAP3 SWAP2 SWAP1 PUSH2 0x106 JUMP JUMPDEST PUSH1 0x40 MLOAD DUP1 SWAP2 SUB SWAP1 RETURN JUMPDEST PUSH0 PUSH0 PUSH0 PUSH0 PUSH0 PUSH1 0x2 PUSH0 PUSH0 DUP3 DUP3 SLOAD PUSH2 0x65 SWAP2 SWAP1 PUSH2 0x184 JUMP JUMPDEST SWAP3 POP POP DUP2 SWAP1 SSTORE POP PUSH1 0x2 PUSH1 0x1 PUSH0 DUP3 DUP3 SLOAD PUSH2 0x7E SWAP2 SWAP1 PUSH2 0x1B7 JUMP JUMPDEST SWAP3 POP POP DUP2 SWAP1 SSTORE POP PUSH1 0x2 DUP1 PUSH0 DUP3 DUP3 SLOAD PUSH2 0x96 SWAP2 SWAP1 PUSH2 0x1EA JUMP JUMPDEST SWAP3 POP POP DUP2 SWAP1 SSTORE POP PUSH1 0x5 PUSH1 0x3 PUSH0 DUP3 DUP3 SLOAD PUSH2 0xAF SWAP2 SWAP1 PUSH2 0x258 JUMP JUMPDEST SWAP3 POP POP DUP2 SWAP1 SSTORE POP PUSH1 0x2 PUSH1 0x4 PUSH0 DUP3 DUP3 SLOAD PUSH2 0xC8 SWAP2 SWAP1 PUSH2 0x288 JUMP JUMPDEST SWAP3 POP POP DUP2 SWAP1 SSTORE POP PUSH0 SLOAD PUSH1 0x1 SLOAD PUSH1 0x2 SLOAD PUSH1 0x3 SLOAD PUSH1 0x4 SLOAD SWAP5 POP SWAP5 POP SWAP5 POP SWAP5 POP SWAP5 POP SWAP1 SWAP2 SWAP3 SWAP4 SWAP5 JUMP JUMPDEST PUSH0 DUP2 SWAP1 POP SWAP2 SWAP1 POP JUMP JUMPDEST PUSH2 0x100 DUP2 PUSH2 0xEE JUMP JUMPDEST DUP3 MSTORE POP POP JUMP JUMPDEST PUSH0 PUSH1 0xA0 DUP3 ADD SWAP1 POP PUSH2 0x119 PUSH0 DUP4 ADD DUP9 PUSH2 0xF7 JUMP JUMPDEST PUSH2 0x126 PUSH1 0x20 DUP4 ADD DUP8 PUSH2 0xF7 JUMP JUMPDEST PUSH2 0x133 PUSH1 0x40 DUP4 ADD DUP7 PUSH2 0xF7 JUMP JUMPDEST PUSH2 0x140 PUSH1 0x60 DUP4 ADD DUP6 PUSH2 0xF7 JUMP JUMPDEST PUSH2 0x14D PUSH1 0x80 DUP4 ADD DUP5 PUSH2 0xF7 JUMP JUMPDEST SWAP7 SWAP6 POP POP POP POP POP POP JUMP JUMPDEST PUSH32 0x4E487B7100000000000000000000000000000000000000000000000000000000 PUSH0 MSTORE PUSH1 0x11 PUSH1 0x4 MSTORE PUSH1 0x24 PUSH0 REVERT JUMPDEST PUSH0 PUSH2 0x18E DUP3 PUSH2 0xEE JUMP JUMPDEST SWAP2 POP PUSH2 0x199 DUP4 PUSH2 0xEE JUMP JUMPDEST SWAP3 POP DUP3 DUP3 ADD SWAP1 POP DUP1 DUP3 GT ISZERO PUSH2 0x1B1 JUMPI PUSH2 0x1B0 PUSH2 0x157 JUMP JUMPDEST JUMPDEST SWAP3 SWAP2 POP POP JUMP JUMPDEST PUSH0 PUSH2 0x1C1 DUP3 PUSH2 0xEE JUMP JUMPDEST SWAP2 POP PUSH2 0x1CC DUP4 PUSH2 0xEE JUMP JUMPDEST SWAP3 POP DUP3 DUP3 SUB SWAP1 POP DUP2 DUP2 GT ISZERO PUSH2 0x1E4 JUMPI PUSH2 0x1E3 PUSH2 0x157 JUMP JUMPDEST JUMPDEST SWAP3 SWAP2 POP POP JUMP JUMPDEST PUSH0 PUSH2 0x1F4 DUP3 PUSH2 0xEE JUMP JUMPDEST SWAP2 POP PUSH2 0x1FF DUP4 PUSH2 0xEE JUMP JUMPDEST SWAP3 POP DUP3 DUP3 MUL PUSH2 0x20D DUP2 PUSH2 0xEE JUMP JUMPDEST SWAP2 POP DUP3 DUP3 DIV DUP5 EQ DUP4 ISZERO OR PUSH2 0x224 JUMPI PUSH2 0x223 PUSH2 0x157 JUMP JUMPDEST JUMPDEST POP SWAP3 SWAP2 POP POP JUMP JUMPDEST PUSH32 0x4E487B7100000000000000000000000000000000000000000000000000000000 PUSH0 MSTORE PUSH1 0x12 PUSH1 0x4 MSTORE PUSH1 0x24 PUSH0 REVERT JUMPDEST PUSH0 PUSH2 0x262 DUP3 PUSH2 0xEE JUMP JUMPDEST SWAP2 POP PUSH2 0x26D DUP4 PUSH2 0xEE JUMP JUMPDEST SWAP3 POP DUP3 PUSH2 0x27D JUMPI PUSH2 0x27C PUSH2 0x22B JUMP JUMPDEST JUMPDEST DUP3 DUP3 DIV SWAP1 POP SWAP3 SWAP2 POP POP JUMP JUMPDEST PUSH0 PUSH2 0x292 DUP3 PUSH2 0xEE JUMP JUMPDEST SWAP2 POP PUSH2 0x29D DUP4 PUSH2 0xEE JUMP JUMPDEST SWAP3 POP DUP3 PUSH2 0x2AD JUMPI PUSH2 0x2AC PUSH2 0x22B JUMP JUMPDEST JUMPDEST DUP3 DUP3 MOD SWAP1 POP SWAP3 SWAP2 POP POP JUMP INVALID LOG2 PUSH5 0x6970667358 0x22 SLT KECCAK256 DUP2 LOG3 MCOPY 0x26 BASEFEE MLOAD 0xAC 0xEA DUP10 SWAP10 0xC PUSH26 0xDB542BF8BBB4BF555333B46FAD4BDBDBA15C81C964736F6C6343 STOP ADDMOD 0x1F STOP CALLER "
		},
		"gasEstimates": {
			"creation": {
				"codeDepositCost": "150000",
				"executionCost": "110723",
				"totalCost": "260723"
			},
			"external": {
				"assignment()": "infinite"
			}
		},
		"methodIdentifiers": {
			"assignment()": "71ca2ecf"
		}
	},
	"abi": [
		{
			"inputs": [],
			"name": "assignment",
			"outputs": [
				{
					"internalType": "uint256",
					"name": "",
					"type": "uint256"
				},
				{
					"internalType": "uint256",
					"name": "",
					"type": "uint256"
				},
				{
					"internalType": "uint256",
					"name": "",
					"type": "uint256"
				},
				{
					"internalType": "uint256",
					"name": "",
					"type": "uint256"
				},
				{
					"internalType": "uint256",
					"name": "",
					"type": "uint256"
				}
			],
			"stateMutability": "nonpayable",
			"type": "function"
		}
	]
}