{
	"data": {
		"bytecode": {
			"linkReferences": {},
			"object": "60806040526040518060a001604052806040518060400160405280600581526020017f6170706c6500000000000000000000000000000000000000000000000000000081525081526020016040518060400160405280600681526020017f62616e616e61000000000000000000000000000000000000000000000000000081525081526020016040518060400160405280600781526020017f636f636f6e75740000000000000000000000000000000000000000000000000081525081526020016040518060400160405280600681526020017f64757269616e000000000000000000000000000000000000000000000000000081525081526020016040518060400160405280600481526020017f70656172000000000000000000000000000000000000000000000000000000008152508152505f906005610143929190610155565b5034801561014f575f5ffd5b50610533565b828054828255905f5260205f2090810192821561019b579160200282015b8281111561019a57825182908161018a9190610464565b5091602001919060010190610173565b5b5090506101a891906101ac565b5090565b5b808211156101cb575f81816101c291906101cf565b506001016101ad565b5090565b5080546101db9061028b565b5f825580601f106101ec5750610209565b601f0160209004905f5260205f2090810190610208919061020c565b5b50565b5b80821115610223575f815f90555060010161020d565b5090565b5f81519050919050565b7f4e487b71000000000000000000000000000000000000000000000000000000005f52604160045260245ffd5b7f4e487b71000000000000000000000000000000000000000000000000000000005f52602260045260245ffd5b5f60028204905060018216806102a257607f821691505b6020821081036102b5576102b461025e565b5b50919050565b5f819050815f5260205f209050919050565b5f6020601f8301049050919050565b5f82821b905092915050565b5f600883026103177fffffffffffffffffffffffffffffffffffffffffffffffffffffffffffffffff826102dc565b61032186836102dc565b95508019841693508086168417925050509392505050565b5f819050919050565b5f819050919050565b5f61036561036061035b84610339565b610342565b610339565b9050919050565b5f819050919050565b61037e8361034b565b61039261038a8261036c565b8484546102e8565b825550505050565b5f5f905090565b6103a961039a565b6103b4818484610375565b505050565b5b818110156103d7576103cc5f826103a1565b6001810190506103ba565b5050565b601f82111561041c576103ed816102bb565b6103f6846102cd565b81016020851015610405578190505b610419610411856102cd565b8301826103b9565b50505b505050565b5f82821c905092915050565b5f61043c5f1984600802610421565b1980831691505092915050565b5f610454838361042d565b9150826002028217905092915050565b61046d82610227565b67ffffffffffffffff81111561048657610485610231565b5b610490825461028b565b61049b8282856103db565b5f60209050601f8311600181146104cc575f84156104ba578287015190505b6104c48582610449565b86555061052b565b601f1984166104da866102bb565b5f5b82811015610501578489015182556001820191506020850194506020810190506104dc565b8683101561051e578489015161051a601f89168261042d565b8355505b6001600288020188555050505b505050505050565b6106ad806105405f395ff3fe608060405234801561000f575f5ffd5b5060043610610034575f3560e01c8063655f478b14610038578063dfaadcbf14610069575b5f5ffd5b610052600480360381019061004d91906103d9565b610099565b604051610060929190610498565b60405180910390f35b610083600480360381019061007e91906104f0565b6101e7565b604051610090919061051b565b60405180910390f35b5f60605f5f90505b5f805490508110156101a55783805190602001205f82815481106100c8576100c761053b565b5b905f5260205f20016040516100dd9190610661565b60405180910390200361019a57805f82815481106100fe576100fd61053b565b5b905f5260205f200180805461011290610595565b80601f016020809104026020016040519081016040528092919081815260200182805461013e90610595565b80156101895780601f1061016057610100808354040283529160200191610189565b820191905f5260205f20905b81548152906001019060200180831161016c57829003601f168201915b5050505050905092509250506101e2565b8060010190506100a1565b505f6040518060400160405280600781526020017f4e6f7468696e6700000000000000000000000000000000000000000000000000815250915091505b915091565b5f81815481106101f5575f80fd5b905f5260205f20015f91509050805461020d90610595565b80601f016020809104026020016040519081016040528092919081815260200182805461023990610595565b80156102845780601f1061025b57610100808354040283529160200191610284565b820191905f5260205f20905b81548152906001019060200180831161026757829003601f168201915b505050505081565b5f604051905090565b5f5ffd5b5f5ffd5b5f5ffd5b5f5ffd5b5f601f19601f8301169050919050565b7f4e487b71000000000000000000000000000000000000000000000000000000005f52604160045260245ffd5b6102eb826102a5565b810181811067ffffffffffffffff8211171561030a576103096102b5565b5b80604052505050565b5f61031c61028c565b905061032882826102e2565b919050565b5f67ffffffffffffffff821115610347576103466102b5565b5b610350826102a5565b9050602081019050919050565b828183375f83830152505050565b5f61037d6103788461032d565b610313565b905082815260208101848484011115610399576103986102a1565b5b6103a484828561035d565b509392505050565b5f82601f8301126103c0576103bf61029d565b5b81356103d084826020860161036b565b91505092915050565b5f602082840312156103ee576103ed610295565b5b5f82013567ffffffffffffffff81111561040b5761040a610299565b5b610417848285016103ac565b91505092915050565b5f819050919050565b61043281610420565b82525050565b5f81519050919050565b5f82825260208201905092915050565b8281835e5f83830152505050565b5f61046a82610438565b6104748185610442565b9350610484818560208601610452565b61048d816102a5565b840191505092915050565b5f6040820190506104ab5f830185610429565b81810360208301526104bd8184610460565b90509392505050565b6104cf81610420565b81146104d9575f5ffd5b50565b5f813590506104ea816104c6565b92915050565b5f6020828403121561050557610504610295565b5b5f610512848285016104dc565b91505092915050565b5f6020820190508181035f8301526105338184610460565b905092915050565b7f4e487b71000000000000000000000000000000000000000000000000000000005f52603260045260245ffd5b7f4e487b71000000000000000000000000000000000000000000000000000000005f52602260045260245ffd5b5f60028204905060018216806105ac57607f821691505b6020821081036105bf576105be610568565b5b50919050565b5f81905092915050565b5f819050815f5260205f209050919050565b5f81546105ed81610595565b6105f781866105c5565b9450600182165f8114610611576001811461062657610658565b60ff1983168652811515820286019350610658565b61062f856105cf565b5f5b8381101561065057815481890152600182019150602081019050610631565b838801955050505b50505092915050565b5f61066c82846105e1565b91508190509291505056fea2646970667358221220e2c3481ff41d4c3aee13059f38aafce6c34ab9116c0b31394f3cd7192277c13d64736f6c634300081f0033",
			"opcodes": "PUSH1 0x80 PUSH1 0x40 MSTORE PUSH1 0x40 MLOAD DUP1 PUSH1 0xA0 ADD PUSH1 0x40 MSTORE DUP1 PUSH1 0x40 MLOAD DUP1 PUSH1 0x40 ADD PUSH1 0x40 MSTORE DUP1 PUSH1 0x5 DUP2 MSTORE PUSH1 0x20 ADD PUSH32 0x6170706C65000000000000000000000000000000000000000000000000000000 DUP2 MSTORE POP DUP2 MSTORE PUSH1 0x20 ADD PUSH1 0x40 MLOAD DUP1 PUSH1 0x40 ADD PUSH1 0x40 MSTORE DUP1 PUSH1 0x6 DUP2 MSTORE PUSH1 0x20 ADD PUSH32 0x62616E616E610000000000000000000000000000000000000000000000000000 DUP2 MSTORE POP DUP2 MSTORE PUSH1 0x20 ADD PUSH1 0x40 MLOAD DUP1 PUSH1 0x40 ADD PUSH1 0x40 MSTORE DUP1 PUSH1 0x7 DUP2 MSTORE PUSH1 0x20 ADD PUSH32 0x636F636F6E757400000000000000000000000000000000000000000000000000 DUP2 MSTORE POP DUP2 MSTORE PUSH1 0x20 ADD PUSH1 0x40 MLOAD DUP1 PUSH1 0x40 ADD PUSH1 0x40 MSTORE DUP1 PUSH1 0x6 DUP2 MSTORE PUSH1 0x20 ADD PUSH32 0x64757269616E0000000000000000000000000000000000000000000000000000 DUP2 MSTORE POP DUP2 MSTORE PUSH1 0x20 ADD PUSH1 0x40 MLOAD DUP1 PUSH1 0x40 ADD PUSH1 0x40 MSTORE DUP1 PUSH1 0x4 DUP2 MSTORE PUSH1 0x20 ADD PUSH32 0x7065617200000000000000000000000000000000000000000000000000000000 DUP2 MSTORE POP DUP2 MSTORE POP PUSH0 SWAP1 PUSH1 0x5 PUSH2 0x143 SWAP3 SWAP2 SWAP1 PUSH2 0x155 JUMP JUMPDEST POP CALLVALUE DUP1 ISZERO PUSH2 0x14F JUMPI PUSH0 PUSH0 REVERT JUMPDEST POP PUSH2 0x533 JUMP JUMPDEST DUP3 DUP1 SLOAD DUP3 DUP3 SSTORE SWAP1 PUSH0 MSTORE PUSH1 0x20 PUSH0 KECCAK256 SWAP1 DUP2 ADD SWAP3 DUP3 ISZERO PUSH2 0x19B JUMPI SWAP2 PUSH1 0x20 MUL DUP3 ADD JUMPDEST DUP3 DUP2 GT ISZERO PUSH2 0x19A JUMPI DUP3 MLOAD DUP3 SWAP1 DUP2 PUSH2 0x18A SWAP2 SWAP1 PUSH2 0x464 JUMP JUMPDEST POP SWAP2 PUSH1 0x20 ADD SWAP2 SWAP1 PUSH1 0x1 ADD SWAP1 PUSH2 0x173 JUMP JUMPDEST JUMPDEST POP SWAP1 POP PUSH2 0x1A8 SWAP2 SWAP1 PUSH2 0x1AC JUMP JUMPDEST POP SWAP1 JUMP JUMPDEST JUMPDEST DUP1 DUP3 GT ISZERO PUSH2 0x1CB JUMPI PUSH0 DUP2 DUP2 PUSH2 0x1C2 SWAP2 SWAP1 PUSH2 0x1CF JUMP JUMPDEST POP PUSH1 0x1 ADD PUSH2 0x1AD JUMP JUMPDEST POP SWAP1 JUMP JUMPDEST POP DUP1 SLOAD PUSH2 0x1DB SWAP1 PUSH2 0x28B JUMP JUMPDEST PUSH0 DUP3 SSTORE DUP1 PUSH1 0x1F LT PUSH2 0x1EC JUMPI POP PUSH2 0x209 JUMP JUMPDEST PUSH1 0x1F ADD PUSH1 0x20 SWAP1 DIV SWAP1 PUSH0 MSTORE PUSH1 0x20 PUSH0 KECCAK256 SWAP1 DUP2 ADD SWAP1 PUSH2 0x208 SWAP2 SWAP1 PUSH2 0x20C JUMP JUMPDEST JUMPDEST POP JUMP JUMPDEST JUMPDEST DUP1 DUP3 GT ISZERO PUSH2 0x223 JUMPI PUSH0 DUP2 PUSH0 SWAP1 SSTORE POP PUSH1 0x1 ADD PUSH2 0x20D JUMP JUMPDEST POP SWAP1 JUMP JUMPDEST PUSH0 DUP2 MLOAD SWAP1 POP SWAP2 SWAP1 POP JUMP JUMPDEST PUSH32 0x4E487B7100000000000000000000000000000000000000000000000000000000 PUSH0 MSTORE PUSH1 0x41 PUSH1 0x4 MSTORE PUSH1 0x24 PUSH0 REVERT JUMPDEST PUSH32 0x4E487B7100000000000000000000000000000000000000000000000000000000 PUSH0 MSTORE PUSH1 0x22 PUSH1 0x4 MSTORE PUSH1 0x24 PUSH0 REVERT JUMPDEST PUSH0 PUSH1 0x2 DUP3 DIV SWAP1 POP PUSH1 0x1 DUP3 AND DUP1 PUSH2 0x2A2 JUMPI PUSH1 0x7F DUP3 AND SWAP2 POP JUMPDEST PUSH1 0x20 DUP3 LT DUP2 SUB PUSH2 0x2B5 JUMPI PUSH2 0x2B4 PUSH2 0x25E JUMP JUMPDEST JUMPDEST POP SWAP2 SWAP1 POP JUMP JUMPDEST PUSH0 DUP2 SWAP1 POP DUP2 PUSH0 MSTORE PUSH1 0x20 PUSH0 KECCAK256 SWAP1 POP SWAP2 SWAP1 POP JUMP JUMPDEST PUSH0 PUSH1 0x20 PUSH1 0x1F DUP4 ADD DIV SWAP1 POP SWAP2 SWAP1 POP JUMP JUMPDEST PUSH0 DUP3 DUP3 SHL SWAP1 POP SWAP3 SWAP2 POP POP JUMP JUMPDEST PUSH0 PUSH1 0x8 DUP4 MUL PUSH2 0x317 PUSH32 0xFFFFFFFFFFFFFFFFFFFFFFFFFFFFFFFFFFFFFFFFFFFFFFFFFFFFFFFFFFFFFFFF DUP3 PUSH2 0x2DC JUMP JUMPDEST PUSH2 0x321 DUP7 DUP4 PUSH2 0x2DC JUMP JUMPDEST SWAP6 POP DUP1 NOT DUP5 AND SWAP4 POP DUP1 DUP7 AND DUP5 OR SWAP3 POP POP POP SWAP4 SWAP3 POP POP POP JUMP JUMPDEST PUSH0 DUP2 SWAP1 POP SWAP2 SWAP1 POP JUMP JUMPDEST PUSH0 DUP2 SWAP1 POP SWAP2 SWAP1 POP JUMP JUMPDEST PUSH0 PUSH2 0x365 PUSH2 0x360 PUSH2 0x35B DUP5 PUSH2 0x339 JUMP JUMPDEST PUSH2 0x342 JUMP JUMPDEST PUSH2 0x339 JUMP JUMPDEST SWAP1 POP SWAP2 SWAP1 POP JUMP JUMPDEST PUSH0 DUP2 SWAP1 POP SWAP2 SWAP1 POP JUMP JUMPDEST PUSH2 0x37E DUP4 PUSH2 0x34B JUMP JUMPDEST PUSH2 0x392 PUSH2 0x38A DUP3 PUSH2 0x36C JUMP JUMPDEST DUP5 DUP5 SLOAD PUSH2 0x2E8 JUMP JUMPDEST DUP3 SSTORE POP POP POP POP JUMP JUMPDEST PUSH0 PUSH0 SWAP1 POP SWAP1 JUMP JUMPDEST PUSH2 0x3A9 PUSH2 0x39A JUMP JUMPDEST PUSH2 0x3B4 DUP2 DUP5 DUP5 PUSH2 0x375 JUMP JUMPDEST POP POP POP JUMP JUMPDEST JUMPDEST DUP2 DUP2 LT ISZERO PUSH2 0x3D7 JUMPI PUSH2 0x3CC PUSH0 DUP3 PUSH2 0x3A1 JUMP JUMPDEST PUSH1 0x1 DUP2 ADD SWAP1 POP PUSH2 0x3BA JUMP JUMPDEST POP POP JUMP JUMPDEST PUSH1 0x1F DUP3 GT ISZERO PUSH2 0x41C JUMPI PUSH2 0x3ED DUP2 PUSH2 0x2BB JUMP JUMPDEST PUSH2 0x3F6 DUP5 PUSH2 0x2CD JUMP JUMPDEST DUP2 ADD PUSH1 0x20 DUP6 LT ISZERO PUSH2 0x405 JUMPI DUP2 SWAP1 POP JUMPDEST PUSH2 0x419 PUSH2 0x411 DUP6 PUSH2 0x2CD JUMP JUMPDEST DUP4 ADD DUP3 PUSH2 0x3B9 JUMP JUMPDEST POP POP JUMPDEST POP POP POP JUMP JUMPDEST PUSH0 DUP3 DUP3 SHR SWAP1 POP SWAP3 SWAP2 POP POP JUMP JUMPDEST PUSH0 PUSH2 0x43C PUSH0 NOT DUP5 PUSH1 0x8 MUL PUSH2 0x421 JUMP JUMPDEST NOT DUP1 DUP4 AND SWAP2 POP POP SWAP3 SWAP2 POP POP JUMP JUMPDEST PUSH0 PUSH2 0x454 DUP4 DUP4 PUSH2 0x42D JUMP JUMPDEST SWAP2 POP DUP3 PUSH1 0x2 MUL DUP3 OR SWAP1 POP SWAP3 SWAP2 POP POP JUMP JUMPDEST PUSH2 0x46D DUP3 PUSH2 0x227 JUMP JUMPDEST PUSH8 0xFFFFFFFFFFFFFFFF DUP2 GT ISZERO PUSH2 0x486 JUMPI PUSH2 0x485 PUSH2 0x231 JUMP JUMPDEST JUMPDEST PUSH2 0x490 DUP3 SLOAD PUSH2 0x28B JUMP JUMPDEST PUSH2 0x49B DUP3 DUP3 DUP6 PUSH2 0x3DB JUMP JUMPDEST PUSH0 PUSH1 0x20 SWAP1 POP PUSH1 0x1F DUP4 GT PUSH1 0x1 DUP2 EQ PUSH2 0x4CC JUMPI PUSH0 DUP5 ISZERO PUSH2 0x4BA JUMPI DUP3 DUP8 ADD MLOAD SWAP1 POP JUMPDEST PUSH2 0x4C4 DUP6 DUP3 PUSH2 0x449 JUMP JUMPDEST DUP7 SSTORE POP PUSH2 0x52B JUMP JUMPDEST PUSH1 0x1F NOT DUP5 AND PUSH2 0x4DA DUP7 PUSH2 0x2BB JUMP JUMPDEST PUSH0 JUMPDEST DUP3 DUP2 LT ISZERO PUSH2 0x501 JUMPI DUP5 DUP10 ADD MLOAD DUP3 SSTORE PUSH1 0x1 DUP3 ADD SWAP2 POP PUSH1 0x20 DUP6 ADD SWAP5 POP PUSH1 0x20 DUP2 ADD SWAP1 POP PUSH2 0x4DC JUMP JUMPDEST DUP7 DUP4 LT ISZERO PUSH2 0x51E JUMPI DUP5 DUP10 ADD MLOAD PUSH2 0x51A PUSH1 0x1F DUP10 AND DUP3 PUSH2 0x42D JUMP JUMPDEST DUP4 SSTORE POP JUMPDEST PUSH1 0x1 PUSH1 0x2 DUP9 MUL ADD DUP9 SSTORE POP POP POP JUMPDEST POP POP POP POP POP POP JUMP JUMPDEST PUSH2 0x6AD DUP1 PUSH2 0x540 PUSH0 CODECOPY PUSH0 RETURN INVALID PUSH1 0x80 PUSH1 0x40 MSTORE CALLVALUE DUP1 ISZERO PUSH2 0xF JUMPI PUSH0 PUSH0 REVERT JUMPDEST POP PUSH1 0x4 CALLDATASIZE LT PUSH2 0x34 JUMPI PUSH0 CALLDATALOAD PUSH1 0xE0 SHR DUP1 PUSH4 0x655F478B EQ PUSH2 0x38 JUMPI DUP1 PUSH4 0xDFAADCBF EQ PUSH2 0x69 JUMPI JUMPDEST PUSH0 PUSH0 REVERT JUMPDEST PUSH2 0x52 PUSH1 0x4 DUP1 CALLDATASIZE SUB DUP2 ADD SWAP1 PUSH2 0x4D SWAP2 SWAP1 PUSH2 0x3D9 JUMP JUMPDEST PUSH2 0x99 JUMP JUMPDEST PUSH1 0x40 MLOAD PUSH2 0x60 SWAP3 SWAP2 SWAP1 PUSH2 0x498 JUMP JUMPDEST PUSH1 0x40 MLOAD DUP1 SWAP2 SUB SWAP1 RETURN JUMPDEST PUSH2 0x83 PUSH1 0x4 DUP1 CALLDATASIZE SUB DUP2 ADD SWAP1 PUSH2 0x7E SWAP2 SWAP1 PUSH2 0x4F0 JUMP JUMPDEST PUSH2 0x1E7 JUMP JUMPDEST PUSH1 0x40 MLOAD PUSH2 0x90 SWAP2 SWAP1 PUSH2 0x51B JUMP JUMPDEST PUSH1 0x40 MLOAD DUP1 SWAP2 SUB SWAP1 RETURN JUMPDEST PUSH0 PUSH1 0x60 PUSH0 PUSH0 SWAP1 POP JUMPDEST PUSH0 DUP1 SLOAD SWAP1 POP DUP2 LT ISZERO PUSH2 0x1A5 JUMPI DUP4 DUP1 MLOAD SWAP1 PUSH1 0x20 ADD KECCAK256 PUSH0 DUP3 DUP2 SLOAD DUP2 LT PUSH2 0xC8 JUMPI PUSH2 0xC7 PUSH2 0x53B JUMP JUMPDEST JUMPDEST SWAP1 PUSH0 MSTORE PUSH1 0x20 PUSH0 KECCAK256 ADD PUSH1 0x40 MLOAD PUSH2 0xDD SWAP2 SWAP1 PUSH2 0x661 JUMP JUMPDEST PUSH1 0x40 MLOAD DUP1 SWAP2 SUB SWAP1 KECCAK256 SUB PUSH2 0x19A JUMPI DUP1 PUSH0 DUP3 DUP2 SLOAD DUP2 LT PUSH2 0xFE JUMPI PUSH2 0xFD PUSH2 0x53B JUMP JUMPDEST JUMPDEST SWAP1 PUSH0 MSTORE PUSH1 0x20 PUSH0 KECCAK256 ADD DUP1 DUP1 SLOAD PUSH2 0x112 SWAP1 PUSH2 0x595 JUMP JUMPDEST DUP1 PUSH1 0x1F ADD PUSH1 0x20 DUP1 SWAP2 DIV MUL PUSH1 0x20 ADD PUSH1 0x40 MLOAD SWAP1 DUP2 ADD PUSH1 0x40 MSTORE DUP1 SWAP3 SWAP2 SWAP1 DUP2 DUP2 MSTORE PUSH1 0x20 ADD DUP3 DUP1 SLOAD PUSH2 0x13E SWAP1 PUSH2 0x595 JUMP JUMPDEST DUP1 ISZERO PUSH2 0x189 JUMPI DUP1 PUSH1 0x1F LT PUSH2 0x160 JUMPI PUSH2 0x100 DUP1 DUP4 SLOAD DIV MUL DUP4 MSTORE SWAP2 PUSH1 0x20 ADD SWAP2 PUSH2 0x189 JUMP JUMPDEST DUP3 ADD SWAP2 SWAP1 PUSH0 MSTORE PUSH1 0x20 PUSH0 KECCAK256 SWAP1 JUMPDEST DUP2 SLOAD DUP2 MSTORE SWAP1 PUSH1 0x1 ADD SWAP1 PUSH1 0x20 ADD DUP1 DUP4 GT PUSH2 0x16C JUMPI DUP3 SWAP1 SUB PUSH1 0x1F AND DUP3 ADD SWAP2 JUMPDEST POP POP POP POP POP SWAP1 POP SWAP3 POP SWAP3 POP POP PUSH2 0x1E2 JUMP JUMPDEST DUP1 PUSH1 0x1 ADD SWAP1 POP PUSH2 0xA1 JUMP JUMPDEST POP PUSH0 PUSH1 0x40 MLOAD DUP1 PUSH1 0x40 ADD PUSH1 0x40 MSTORE DUP1 PUSH1 0x7 DUP2 MSTORE PUSH1 0x20 ADD PUSH32 0x4E6F7468696E6700000000000000000000000000000000000000000000000000 DUP2 MSTORE POP SWAP2 POP SWAP2 POP JUMPDEST SWAP2 POP SWAP2 JUMP JUMPDEST PUSH0 DUP2 DUP2 SLOAD DUP2 LT PUSH2 0x1F5 JUMPI PUSH0 DUP1 REVERT JUMPDEST SWAP1 PUSH0 MSTORE PUSH1 0x20 PUSH0 KECCAK256 ADD PUSH0 SWAP2 POP SWAP1 POP DUP1 SLOAD PUSH2 0x20D SWAP1 PUSH2 0x595 JUMP JUMPDEST DUP1 PUSH1 0x1F ADD PUSH1 0x20 DUP1 SWAP2 DIV MUL PUSH1 0x20 ADD PUSH1 0x40 MLOAD SWAP1 DUP2 ADD PUSH1 0x40 MSTORE DUP1 SWAP3 SWAP2 SWAP1 DUP2 DUP2 MSTORE PUSH1 0x20 ADD DUP3 DUP1 SLOAD PUSH2 0x239 SWAP1 PUSH2 0x595 JUMP JUMPDEST DUP1 ISZERO PUSH2 0x284 JUMPI DUP1 PUSH1 0x1F LT PUSH2 0x25B JUMPI PUSH2 0x100 DUP1 DUP4 SLOAD DIV MUL DUP4 MSTORE SWAP2 PUSH1 0x20 ADD SWAP2 PUSH2 0x284 JUMP JUMPDEST DUP3 ADD SWAP2 SWAP1 PUSH0 MSTORE PUSH1 0x20 PUSH0 KECCAK256 SWAP1 JUMPDEST DUP2 SLOAD DUP2 MSTORE SWAP1 PUSH1 0x1 ADD SWAP1 PUSH1 0x20 ADD DUP1 DUP4 GT PUSH2 0x267 JUMPI DUP3 SWAP1 SUB PUSH1 0x1F AND DUP3 ADD SWAP2 JUMPDEST POP POP POP POP POP DUP2 JUMP JUMPDEST PUSH0 PUSH1 0x40 MLOAD SWAP1 POP SWAP1 JUMP JUMPDEST PUSH0 PUSH0 REVERT JUMPDEST PUSH0 PUSH0 REVERT JUMPDEST PUSH0 PUSH0 REVERT JUMPDEST PUSH0 PUSH0 REVERT JUMPDEST PUSH0 PUSH1 0x1F NOT PUSH1 0x1F DUP4 ADD AND SWAP1 POP SWAP2 SWAP1 POP JUMP JUMPDEST PUSH32 0x4E487B7100000000000000000000000000000000000000000000000000000000 PUSH0 MSTORE PUSH1 0x41 PUSH1 0x4 MSTORE PUSH1 0x24 PUSH0 REVERT JUMPDEST PUSH2 0x2EB DUP3 PUSH2 0x2A5 JUMP JUMPDEST DUP2 ADD DUP2 DUP2 LT PUSH8 0xFFFFFFFFFFFFFFFF DUP3 GT OR ISZERO PUSH2 0x30A JUMPI PUSH2 0x309 PUSH2 0x2B5 JUMP JUMPDEST JUMPDEST DUP1 PUSH1 0x40 MSTORE POP POP POP JUMP JUMPDEST PUSH0 PUSH2 0x31C PUSH2 0x28C JUMP JUMPDEST SWAP1 POP PUSH2 0x328 DUP3 DUP3 PUSH2 0x2E2 JUMP JUMPDEST SWAP2 SWAP1 POP JUMP JUMPDEST PUSH0 PUSH8 0xFFFFFFFFFFFFFFFF DUP3 GT ISZERO PUSH2 0x347 JUMPI PUSH2 0x346 PUSH2 0x2B5 JUMP JUMPDEST JUMPDEST PUSH2 0x350 DUP3 PUSH2 0x2A5 JUMP JUMPDEST SWAP1 POP PUSH1 0x20 DUP2 ADD SWAP1 POP SWAP2 SWAP1 POP JUMP JUMPDEST DUP3 DUP2 DUP4 CALLDATACOPY PUSH0 DUP4 DUP4 ADD MSTORE POP POP POP JUMP JUMPDEST PUSH0 PUSH2 0x37D PUSH2 0x378 DUP5 PUSH2 0x32D JUMP JUMPDEST PUSH2 0x313 JUMP JUMPDEST SWAP1 POP DUP3 DUP2 MSTORE PUSH1 0x20 DUP2 ADD DUP5 DUP5 DUP5 ADD GT ISZERO PUSH2 0x399 JUMPI PUSH2 0x398 PUSH2 0x2A1 JUMP JUMPDEST JUMPDEST PUSH2 0x3A4 DUP5 DUP3 DUP6 PUSH2 0x35D JUMP JUMPDEST POP SWAP4 SWAP3 POP POP POP JUMP JUMPDEST PUSH0 DUP3 PUSH1 0x1F DUP4 ADD SLT PUSH2 0x3C0 JUMPI PUSH2 0x3BF PUSH2 0x29D JUMP JUMPDEST JUMPDEST DUP2 CALLDATALOAD PUSH2 0x3D0 DUP5 DUP3 PUSH1 0x20 DUP7 ADD PUSH2 0x36B JUMP JUMPDEST SWAP2 POP POP SWAP3 SWAP2 POP POP JUMP JUMPDEST PUSH0 PUSH1 0x20 DUP3 DUP5 SUB SLT ISZERO PUSH2 0x3EE JUMPI PUSH2 0x3ED PUSH2 0x295 JUMP JUMPDEST JUMPDEST PUSH0 DUP3 ADD CALLDATALOAD PUSH8 0xFFFFFFFFFFFFFFFF DUP2 GT ISZERO PUSH2 0x40B JUMPI PUSH2 0x40A PUSH2 0x299 JUMP JUMPDEST JUMPDEST PUSH2 0x417 DUP5 DUP3 DUP6 ADD PUSH2 0x3AC JUMP JUMPDEST SWAP2 POP POP SWAP3 SWAP2 POP POP JUMP JUMPDEST PUSH0 DUP2 SWAP1 POP SWAP2 SWAP1 POP JUMP JUMPDEST PUSH2 0x432 DUP2 PUSH2 0x420 JUMP JUMPDEST DUP3 MSTORE POP POP JUMP JUMPDEST PUSH0 DUP2 MLOAD SWAP1 POP SWAP2 SWAP1 POP JUMP JUMPDEST PUSH0 DUP3 DUP3 MSTORE PUSH1 0x20 DUP3 ADD SWAP1 POP SWAP3 SWAP2 POP POP JUMP JUMPDEST DUP3 DUP2 DUP4 MCOPY PUSH0 DUP4 DUP4 ADD MSTORE POP POP POP JUMP JUMPDEST PUSH0 PUSH2 0x46A DUP3 PUSH2 0x438 JUMP JUMPDEST PUSH2 0x474 DUP2 DUP6 PUSH2 0x442 JUMP JUMPDEST SWAP4 POP PUSH2 0x484 DUP2 DUP6 PUSH1 0x20 DUP7 ADD PUSH2 0x452 JUMP JUMPDEST PUSH2 0x48D DUP2 PUSH2 0x2A5 JUMP JUMPDEST DUP5 ADD SWAP2 POP POP SWAP3 SWAP2 POP POP JUMP JUMPDEST PUSH0 PUSH1 0x40 DUP3 ADD SWAP1 POP PUSH2 0x4AB PUSH0 DUP4 ADD DUP6 PUSH2 0x429 JUMP JUMPDEST DUP2 DUP2 SUB PUSH1 0x20 DUP4 ADD MSTORE PUSH2 0x4BD DUP2 DUP5 PUSH2 0x460 JUMP JUMPDEST SWAP1 POP SWAP4 SWAP3 POP POP POP JUMP JUMPDEST PUSH2 0x4CF DUP2 PUSH2 0x420 JUMP JUMPDEST DUP2 EQ PUSH2 0x4D9 JUMPI PUSH0 PUSH0 REVERT JUMPDEST POP JUMP JUMPDEST PUSH0 DUP2 CALLDATALOAD SWAP1 POP PUSH2 0x4EA DUP2 PUSH2 0x4C6 JUMP JUMPDEST SWAP3 SWAP2 POP POP JUMP JUMPDEST PUSH0 PUSH1 0x20 DUP3 DUP5 SUB SLT ISZERO PUSH2 0x505 JUMPI PUSH2 0x504 PUSH2 0x295 JUMP JUMPDEST JUMPDEST PUSH0 PUSH2 0x512 DUP5 DUP3 DUP6 ADD PUSH2 0x4DC JUMP JUMPDEST SWAP2 POP POP SWAP3 SWAP2 POP POP JUMP JUMPDEST PUSH0 PUSH1 0x20 DUP3 ADD SWAP1 POP DUP2 DUP2 SUB PUSH0 DUP4 ADD MSTORE PUSH2 0x533 DUP2 DUP5 PUSH2 0x460 JUMP JUMPDEST SWAP1 POP SWAP3 SWAP2 POP POP JUMP JUMPDEST PUSH32 0x4E487B7100000000000000000000000000000000000000000000000000000000 PUSH0 MSTORE PUSH1 0x32 PUSH1 0x4 MSTORE PUSH1 0x24 PUSH0 REVERT JUMPDEST PUSH32 0x4E487B7100000000000000000000000000000000000000000000000000000000 PUSH0 MSTORE PUSH1 0x22 PUSH1 0x4 MSTORE PUSH1 0x24 PUSH0 REVERT JUMPDEST PUSH0 PUSH1 0x2 DUP3 DIV SWAP1 POP PUSH1 0x1 DUP3 AND DUP1 PUSH2 0x5AC JUMPI PUSH1 0x7F DUP3 AND SWAP2 POP JUMPDEST PUSH1 0x20 DUP3 LT DUP2 SUB PUSH2 0x5BF JUMPI PUSH2 0x5BE PUSH2 0x568 JUMP JUMPDEST JUMPDEST POP SWAP2 SWAP1 POP JUMP JUMPDEST PUSH0 DUP2 SWAP1 POP SWAP3 SWAP2 POP POP JUMP JUMPDEST PUSH0 DUP2 SWAP1 POP DUP2 PUSH0 MSTORE PUSH1 0x20 PUSH0 KECCAK256 SWAP1 POP SWAP2 SWAP1 POP JUMP JUMPDEST PUSH0 DUP2 SLOAD PUSH2 0x5ED DUP2 PUSH2 0x595 JUMP JUMPDEST PUSH2 0x5F7 DUP2 DUP7 PUSH2 0x5C5 JUMP JUMPDEST SWAP5 POP PUSH1 0x1 DUP3 AND PUSH0 DUP2 EQ PUSH2 0x611 JUMPI PUSH1 0x1 DUP2 EQ PUSH2 0x626 JUMPI PUSH2 0x658 JUMP JUMPDEST PUSH1 0xFF NOT DUP4 AND DUP7 MSTORE DUP2 ISZERO ISZERO DUP3 MUL DUP7 ADD SWAP4 POP PUSH2 0x658 JUMP JUMPDEST PUSH2 0x62F DUP6 PUSH2 0x5CF JUMP JUMPDEST PUSH0 JUMPDEST DUP4 DUP2 LT ISZERO PUSH2 0x650 JUMPI DUP2 SLOAD DUP2 DUP10 ADD MSTORE PUSH1 0x1 DUP3 ADD SWAP2 POP PUSH1 0x20 DUP2 ADD SWAP1 POP PUSH2 0x631 JUMP JUMPDEST DUP4 DUP9 ADD SWAP6 POP POP POP JUMPDEST POP POP POP SWAP3 SWAP2 POP POP JUMP JUMPDEST PUSH0 PUSH2 0x66C DUP3 DUP5 PUSH2 0x5E1 JUMP JUMPDEST SWAP2 POP DUP2 SWAP1 POP SWAP3 SWAP2 POP POP JUMP INVALID LOG2 PUSH5 0x6970667358 0x22 SLT KECCAK256 0xE2 0xC3 BASEFEE 0x1F DELEGATECALL SAR 0x4C GASPRICE RETURNCONTRACT 0x13 SDIV SWAP16 CODESIZE 0xAA 0xFC DUPN 0xC3 BLOBBASEFEE 0xB9 GT PUSH13 0xB31394F3CD7192277C13D6473 PUSH16 0x6C634300081F00330000000000000000 "
		},
		"gasEstimates": {
			"creation": {
				"codeDepositCost": "341800",
				"executionCost": "infinite",
				"totalCost": "infinite"
			},
			"external": {
				"fruitArray(uint256)": "infinite",
				"linearSearch(string)": "infinite"
			}
		},
		"methodIdentifiers": {
			"fruitArray(uint256)": "dfaadcbf",
			"linearSearch(string)": "655f478b"
		}
	},
	"abi": [
		{
			"inputs": [
				{
					"internalType": "uint256",
					"name": "",
					"type": "uint256"
				}
			],
			"name": "fruitArray",
			"outputs": [
				{
					"internalType": "string",
					"name": "",
					"type": "string"
				}
			],
			"stateMutability": "view",
			"type": "function"
		},
		{
			"inputs": [
				{
					"internalType": "string",
					"name": "_word",
					"type": "string"
				}
			],
			"name": "linearSearch",
			"outputs": [
				{
					"internalType": "uint256",
					"name": "",
					"type": "uint256"
				},
				{
					"internalType": "string",
					"name": "",
					"type": "string"
				}
			],
			"stateMutability": "view",
			"type": "function"
		}
	]
}